{
  "_format": "hh-sol-artifact-1",
  "contractName": "CoffeeNFT",
  "sourceName": "contracts/CoffeeNFT.sol",
  "abi": [
    {
      "inputs": [],
      "stateMutability": "nonpayable",
      "type": "constructor"
    },
    {
      "inputs": [
        {
          "internalType": "address",
          "name": "sender",
          "type": "address"
        },
        {
          "internalType": "uint256",
          "name": "tokenId",
          "type": "uint256"
        },
        {
          "internalType": "address",
          "name": "owner",
          "type": "address"
        }
      ],
      "name": "ERC721IncorrectOwner",
      "type": "error"
    },
    {
      "inputs": [
        {
          "internalType": "address",
          "name": "operator",
          "type": "address"
        },
        {
          "internalType": "uint256",
          "name": "tokenId",
          "type": "uint256"
        }
      ],
      "name": "ERC721InsufficientApproval",
      "type": "error"
    },
    {
      "inputs": [
        {
          "internalType": "address",
          "name": "approver",
          "type": "address"
        }
      ],
      "name": "ERC721InvalidApprover",
      "type": "error"
    },
    {
      "inputs": [
        {
          "internalType": "address",
          "name": "operator",
          "type": "address"
        }
      ],
      "name": "ERC721InvalidOperator",
      "type": "error"
    },
    {
      "inputs": [
        {
          "internalType": "address",
          "name": "owner",
          "type": "address"
        }
      ],
      "name": "ERC721InvalidOwner",
      "type": "error"
    },
    {
      "inputs": [
        {
          "internalType": "address",
          "name": "receiver",
          "type": "address"
        }
      ],
      "name": "ERC721InvalidReceiver",
      "type": "error"
    },
    {
      "inputs": [
        {
          "internalType": "address",
          "name": "sender",
          "type": "address"
        }
      ],
      "name": "ERC721InvalidSender",
      "type": "error"
    },
    {
      "inputs": [
        {
          "internalType": "uint256",
          "name": "tokenId",
          "type": "uint256"
        }
      ],
      "name": "ERC721NonexistentToken",
      "type": "error"
    },
    {
      "inputs": [],
      "name": "InvalidMenuID",
      "type": "error"
    },
    {
      "inputs": [],
      "name": "NotAuthorized",
      "type": "error"
    },
    {
      "inputs": [
        {
          "internalType": "address",
          "name": "owner",
          "type": "address"
        }
      ],
      "name": "OwnableInvalidOwner",
      "type": "error"
    },
    {
      "inputs": [
        {
          "internalType": "address",
          "name": "account",
          "type": "address"
        }
      ],
      "name": "OwnableUnauthorizedAccount",
      "type": "error"
    },
    {
      "inputs": [],
      "name": "TokenNotExists",
      "type": "error"
    },
    {
      "anonymous": false,
      "inputs": [
        {
          "indexed": true,
          "internalType": "address",
          "name": "owner",
          "type": "address"
        },
        {
          "indexed": true,
          "internalType": "address",
          "name": "approved",
          "type": "address"
        },
        {
          "indexed": true,
          "internalType": "uint256",
          "name": "tokenId",
          "type": "uint256"
        }
      ],
      "name": "Approval",
      "type": "event"
    },
    {
      "anonymous": false,
      "inputs": [
        {
          "indexed": true,
          "internalType": "address",
          "name": "owner",
          "type": "address"
        },
        {
          "indexed": true,
          "internalType": "address",
          "name": "operator",
          "type": "address"
        },
        {
          "indexed": false,
          "internalType": "bool",
          "name": "approved",
          "type": "bool"
        }
      ],
      "name": "ApprovalForAll",
      "type": "event"
    },
    {
      "anonymous": false,
      "inputs": [
        {
          "indexed": false,
          "internalType": "uint256",
          "name": "_fromTokenId",
          "type": "uint256"
        },
        {
          "indexed": false,
          "internalType": "uint256",
          "name": "_toTokenId",
          "type": "uint256"
        }
      ],
      "name": "BatchMetadataUpdate",
      "type": "event"
    },
    {
      "anonymous": false,
      "inputs": [
        {
          "indexed": false,
          "internalType": "uint256",
          "name": "_tokenId",
          "type": "uint256"
        }
      ],
      "name": "MetadataUpdate",
      "type": "event"
    },
    {
      "anonymous": false,
      "inputs": [
        {
          "indexed": true,
          "internalType": "address",
          "name": "previousOwner",
          "type": "address"
        },
        {
          "indexed": true,
          "internalType": "address",
          "name": "newOwner",
          "type": "address"
        }
      ],
      "name": "OwnershipTransferred",
      "type": "event"
    },
    {
      "anonymous": false,
      "inputs": [
        {
          "indexed": true,
          "internalType": "address",
          "name": "from",
          "type": "address"
        },
        {
          "indexed": true,
          "internalType": "address",
          "name": "to",
          "type": "address"
        },
        {
          "indexed": true,
          "internalType": "uint256",
          "name": "tokenId",
          "type": "uint256"
        }
      ],
      "name": "Transfer",
      "type": "event"
    },
    {
      "inputs": [
        {
          "internalType": "address",
          "name": "to",
          "type": "address"
        },
        {
          "internalType": "uint256",
          "name": "tokenId",
          "type": "uint256"
        }
      ],
      "name": "approve",
      "outputs": [],
      "stateMutability": "nonpayable",
      "type": "function"
    },
    {
      "inputs": [
        {
          "internalType": "address",
          "name": "owner",
          "type": "address"
        }
      ],
      "name": "balanceOf",
      "outputs": [
        {
          "internalType": "uint256",
          "name": "",
          "type": "uint256"
        }
      ],
      "stateMutability": "view",
      "type": "function"
    },
    {
      "inputs": [
        {
          "internalType": "uint256",
          "name": "",
          "type": "uint256"
        }
      ],
      "name": "baseURIs",
      "outputs": [
        {
          "internalType": "string",
          "name": "",
          "type": "string"
        }
      ],
      "stateMutability": "view",
      "type": "function"
    },
    {
      "inputs": [
        {
          "internalType": "uint256",
          "name": "tokenId",
          "type": "uint256"
        }
      ],
      "name": "burn",
      "outputs": [],
      "stateMutability": "nonpayable",
      "type": "function"
    },
    {
      "inputs": [
        {
          "internalType": "uint256",
          "name": "tokenId",
          "type": "uint256"
        }
      ],
      "name": "getApproved",
      "outputs": [
        {
          "internalType": "address",
          "name": "",
          "type": "address"
        }
      ],
      "stateMutability": "view",
      "type": "function"
    },
    {
      "inputs": [
        {
          "internalType": "uint256",
          "name": "tokenId",
          "type": "uint256"
        }
      ],
      "name": "getTokenMenu",
      "outputs": [
        {
          "internalType": "uint256",
          "name": "",
          "type": "uint256"
        }
      ],
      "stateMutability": "view",
      "type": "function"
    },
    {
      "inputs": [
        {
          "internalType": "address",
          "name": "owner",
          "type": "address"
        },
        {
          "internalType": "address",
          "name": "operator",
          "type": "address"
        }
      ],
      "name": "isApprovedForAll",
      "outputs": [
        {
          "internalType": "bool",
          "name": "",
          "type": "bool"
        }
      ],
      "stateMutability": "view",
      "type": "function"
    },
    {
      "inputs": [
        {
          "internalType": "uint256",
          "name": "",
          "type": "uint256"
        }
      ],
      "name": "menuCounters",
      "outputs": [
        {
          "internalType": "uint256",
          "name": "",
          "type": "uint256"
        }
      ],
      "stateMutability": "view",
      "type": "function"
    },
    {
      "inputs": [
        {
          "internalType": "address",
          "name": "to",
          "type": "address"
        },
        {
          "internalType": "uint256",
          "name": "menuId",
          "type": "uint256"
        }
      ],
      "name": "mint",
      "outputs": [
        {
          "internalType": "uint256",
          "name": "",
          "type": "uint256"
        }
      ],
      "stateMutability": "nonpayable",
      "type": "function"
    },
    {
      "inputs": [],
      "name": "name",
      "outputs": [
        {
          "internalType": "string",
          "name": "",
          "type": "string"
        }
      ],
      "stateMutability": "view",
      "type": "function"
    },
    {
      "inputs": [],
      "name": "owner",
      "outputs": [
        {
          "internalType": "address",
          "name": "",
          "type": "address"
        }
      ],
      "stateMutability": "view",
      "type": "function"
    },
    {
      "inputs": [
        {
          "internalType": "uint256",
          "name": "tokenId",
          "type": "uint256"
        }
      ],
      "name": "ownerOf",
      "outputs": [
        {
          "internalType": "address",
          "name": "",
          "type": "address"
        }
      ],
      "stateMutability": "view",
      "type": "function"
    },
    {
      "inputs": [],
      "name": "renounceOwnership",
      "outputs": [],
      "stateMutability": "nonpayable",
      "type": "function"
    },
    {
      "inputs": [
        {
          "internalType": "address",
          "name": "from",
          "type": "address"
        },
        {
          "internalType": "address",
          "name": "to",
          "type": "address"
        },
        {
          "internalType": "uint256",
          "name": "tokenId",
          "type": "uint256"
        }
      ],
      "name": "safeTransferFrom",
      "outputs": [],
      "stateMutability": "nonpayable",
      "type": "function"
    },
    {
      "inputs": [
        {
          "internalType": "address",
          "name": "from",
          "type": "address"
        },
        {
          "internalType": "address",
          "name": "to",
          "type": "address"
        },
        {
          "internalType": "uint256",
          "name": "tokenId",
          "type": "uint256"
        },
        {
          "internalType": "bytes",
          "name": "data",
          "type": "bytes"
        }
      ],
      "name": "safeTransferFrom",
      "outputs": [],
      "stateMutability": "nonpayable",
      "type": "function"
    },
    {
      "inputs": [
        {
          "internalType": "address",
          "name": "operator",
          "type": "address"
        },
        {
          "internalType": "bool",
          "name": "approved",
          "type": "bool"
        }
      ],
      "name": "setApprovalForAll",
      "outputs": [],
      "stateMutability": "nonpayable",
      "type": "function"
    },
    {
      "inputs": [
        {
          "internalType": "uint256",
          "name": "menuId",
          "type": "uint256"
        },
        {
          "internalType": "string",
          "name": "baseURI",
          "type": "string"
        }
      ],
      "name": "setBaseURI",
      "outputs": [],
      "stateMutability": "nonpayable",
      "type": "function"
    },
    {
      "inputs": [
        {
          "internalType": "bytes4",
          "name": "interfaceId",
          "type": "bytes4"
        }
      ],
      "name": "supportsInterface",
      "outputs": [
        {
          "internalType": "bool",
          "name": "",
          "type": "bool"
        }
      ],
      "stateMutability": "view",
      "type": "function"
    },
    {
      "inputs": [],
      "name": "symbol",
      "outputs": [
        {
          "internalType": "string",
          "name": "",
          "type": "string"
        }
      ],
      "stateMutability": "view",
      "type": "function"
    },
    {
      "inputs": [
        {
          "internalType": "uint256",
          "name": "",
          "type": "uint256"
        }
      ],
      "name": "tokenMenus",
      "outputs": [
        {
          "internalType": "uint256",
          "name": "",
          "type": "uint256"
        }
      ],
      "stateMutability": "view",
      "type": "function"
    },
    {
      "inputs": [
        {
          "internalType": "uint256",
          "name": "tokenId",
          "type": "uint256"
        }
      ],
      "name": "tokenURI",
      "outputs": [
        {
          "internalType": "string",
          "name": "",
          "type": "string"
        }
      ],
      "stateMutability": "view",
      "type": "function"
    },
    {
      "inputs": [
        {
          "internalType": "address",
          "name": "from",
          "type": "address"
        },
        {
          "internalType": "address",
          "name": "to",
          "type": "address"
        },
        {
          "internalType": "uint256",
          "name": "tokenId",
          "type": "uint256"
        }
      ],
      "name": "transferFrom",
      "outputs": [],
      "stateMutability": "nonpayable",
      "type": "function"
    },
    {
      "inputs": [
        {
          "internalType": "address",
          "name": "newOwner",
          "type": "address"
        }
      ],
      "name": "transferOwnership",
      "outputs": [],
      "stateMutability": "nonpayable",
      "type": "function"
    }
  ],
  "bytecode": "0x608060405234801561001057600080fd5b50336040518060400160405280600981526020017f436f666665654e465400000000000000000000000000000000000000000000008152506040518060400160405280600681526020017f434f464645450000000000000000000000000000000000000000000000000000815250816000908161008d9190610445565b50806001908161009d9190610445565b505050600073ffffffffffffffffffffffffffffffffffffffff168173ffffffffffffffffffffffffffffffffffffffff16036101125760006040517f1e4fbdf70000000000000000000000000000000000000000000000000000000081526004016101099190610558565b60405180910390fd5b6101218161012f60201b60201c565b506001600881905550610573565b6000600760009054906101000a900473ffffffffffffffffffffffffffffffffffffffff16905081600760006101000a81548173ffffffffffffffffffffffffffffffffffffffff021916908373ffffffffffffffffffffffffffffffffffffffff1602179055508173ffffffffffffffffffffffffffffffffffffffff168173ffffffffffffffffffffffffffffffffffffffff167f8be0079c531659141344cd1fd0a4f28419497f9722a3daafe3b4186f6b6457e060405160405180910390a35050565b600081519050919050565b7f4e487b7100000000000000000000000000000000000000000000000000000000600052604160045260246000fd5b7f4e487b7100000000000000000000000000000000000000000000000000000000600052602260045260246000fd5b6000600282049050600182168061027657607f821691505b6020821081036102895761028861022f565b5b50919050565b60008190508160005260206000209050919050565b60006020601f8301049050919050565b600082821b905092915050565b6000600883026102f17fffffffffffffffffffffffffffffffffffffffffffffffffffffffffffffffff826102b4565b6102fb86836102b4565b95508019841693508086168417925050509392505050565b6000819050919050565b6000819050919050565b600061034261033d61033884610313565b61031d565b610313565b9050919050565b6000819050919050565b61035c83610327565b61037061036882610349565b8484546102c1565b825550505050565b600090565b610385610378565b610390818484610353565b505050565b5b818110156103b4576103a960008261037d565b600181019050610396565b5050565b601f8211156103f9576103ca8161028f565b6103d3846102a4565b810160208510156103e2578190505b6103f66103ee856102a4565b830182610395565b50505b505050565b600082821c905092915050565b600061041c600019846008026103fe565b1980831691505092915050565b6000610435838361040b565b9150826002028217905092915050565b61044e826101f5565b67ffffffffffffffff81111561046757610466610200565b5b610471825461025e565b61047c8282856103b8565b600060209050601f8311600181146104af576000841561049d578287015190505b6104a78582610429565b86555061050f565b601f1984166104bd8661028f565b60005b828110156104e5578489015182556001820191506020850194506020810190506104c0565b8683101561050257848901516104fe601f89168261040b565b8355505b6001600288020188555050505b505050505050565b600073ffffffffffffffffffffffffffffffffffffffff82169050919050565b600061054282610517565b9050919050565b61055281610537565b82525050565b600060208201905061056d6000830184610549565b92915050565b612d80806105826000396000f3fe608060405234801561001057600080fd5b506004361061014d5760003560e01c80636352211e116100c3578063a22cb4651161007c578063a22cb465146103c2578063aafe32ef146103de578063b88d4fde1461040e578063c87b56dd1461042a578063e985e9c51461045a578063f2fde38b1461048a5761014d565b80636352211e146102ec57806370a082311461031c578063715018a61461034c5780638da5cb5b14610356578063915642061461037457806395d89b41146103a45761014d565b806323b872dd1161011557806323b872dd1461021c57806333cfcb9f1461023857806338e16dec1461025457806340c10f191461028457806342842e0e146102b457806342966c68146102d05761014d565b806301ffc9a71461015257806306fdde0314610182578063081812fc146101a0578063095ea7b3146101d05780630e511bde146101ec575b600080fd5b61016c600480360381019061016791906120df565b6104a6565b6040516101799190612127565b60405180910390f35b61018a6104b8565b60405161019791906121d2565b60405180910390f35b6101ba60048036038101906101b5919061222a565b61054a565b6040516101c79190612298565b60405180910390f35b6101ea60048036038101906101e591906122df565b610566565b005b6102066004803603810190610201919061222a565b61057c565b604051610213919061232e565b60405180910390f35b61023660048036038101906102319190612349565b610594565b005b610252600480360381019061024d91906124d1565b610696565b005b61026e6004803603810190610269919061222a565b6106c3565b60405161027b919061232e565b60405180910390f35b61029e600480360381019061029991906122df565b61074d565b6040516102ab919061232e565b60405180910390f35b6102ce60048036038101906102c99190612349565b6108b9565b005b6102ea60048036038101906102e5919061222a565b6108d9565b005b6103066004803603810190610301919061222a565b6108ed565b6040516103139190612298565b60405180910390f35b6103366004803603810190610331919061252d565b6108ff565b604051610343919061232e565b60405180910390f35b6103546109b9565b005b61035e6109cd565b60405161036b9190612298565b60405180910390f35b61038e6004803603810190610389919061222a565b6109f7565b60405161039b91906121d2565b60405180910390f35b6103ac610a97565b6040516103b991906121d2565b60405180910390f35b6103dc60048036038101906103d79190612586565b610b29565b005b6103f860048036038101906103f3919061222a565b610b3f565b604051610405919061232e565b60405180910390f35b61042860048036038101906104239190612667565b610b57565b005b610444600480360381019061043f919061222a565b610b7c565b60405161045191906121d2565b60405180910390f35b610474600480360381019061046f91906126ea565b610b8e565b6040516104819190612127565b60405180910390f35b6104a4600480360381019061049f919061252d565b610c22565b005b60006104b182610ca8565b9050919050565b6060600080546104c790612759565b80601f01602080910402602001604051908101604052809291908181526020018280546104f390612759565b80156105405780601f1061051557610100808354040283529160200191610540565b820191906000526020600020905b81548152906001019060200180831161052357829003601f168201915b5050505050905090565b600061055582610d09565b5061055f82610d91565b9050919050565b6105788282610573610dce565b610dd6565b5050565b600a6020528060005260406000206000915090505481565b600073ffffffffffffffffffffffffffffffffffffffff168273ffffffffffffffffffffffffffffffffffffffff16036106065760006040517f64a0ae920000000000000000000000000000000000000000000000000000000081526004016105fd9190612298565b60405180910390fd5b600061061a8383610615610dce565b610de8565b90508373ffffffffffffffffffffffffffffffffffffffff168173ffffffffffffffffffffffffffffffffffffffff1614610690578382826040517f64283d7b0000000000000000000000000000000000000000000000000000000081526004016106879392919061278a565b60405180910390fd5b50505050565b61069e611002565b806009600084815260200190815260200160002090816106be919061296d565b505050565b60008073ffffffffffffffffffffffffffffffffffffffff166106e583611089565b73ffffffffffffffffffffffffffffffffffffffff1603610732576040517f01bdc21c00000000000000000000000000000000000000000000000000000000815260040160405180910390fd5b600a6000838152602001908152602001600020549050919050565b6000610757611002565b60006008600081548092919061076c90612a6e565b91905055905082600a600083815260200190815260200160002081905550600b600084815260200190815260200160002060008154809291906107ae90612a6e565b91905055506107bd84826110c6565b60006009600085815260200190815260200160002080546107dd90612759565b80601f016020809104026020016040519081016040528092919081815260200182805461080990612759565b80156108565780601f1061082b57610100808354040283529160200191610856565b820191906000526020600020905b81548152906001019060200180831161083957829003601f168201915b505050505090506000815111156108ae576108ad8282610888600b6000898152602001908152602001600020546110e4565b604051602001610899929190612af2565b604051602081830303815290604052611244565b5b819250505092915050565b6108d483838360405180602001604052806000815250610b57565b505050565b6108e1611002565b6108ea816112a0565b50565b60006108f882610d09565b9050919050565b60008073ffffffffffffffffffffffffffffffffffffffff168273ffffffffffffffffffffffffffffffffffffffff16036109725760006040517f89c62b640000000000000000000000000000000000000000000000000000000081526004016109699190612298565b60405180910390fd5b600360008373ffffffffffffffffffffffffffffffffffffffff1673ffffffffffffffffffffffffffffffffffffffff168152602001908152602001600020549050919050565b6109c1611002565b6109cb6000611326565b565b6000600760009054906101000a900473ffffffffffffffffffffffffffffffffffffffff16905090565b60096020528060005260406000206000915090508054610a1690612759565b80601f0160208091040260200160405190810160405280929190818152602001828054610a4290612759565b8015610a8f5780601f10610a6457610100808354040283529160200191610a8f565b820191906000526020600020905b815481529060010190602001808311610a7257829003601f168201915b505050505081565b606060018054610aa690612759565b80601f0160208091040260200160405190810160405280929190818152602001828054610ad290612759565b8015610b1f5780601f10610af457610100808354040283529160200191610b1f565b820191906000526020600020905b815481529060010190602001808311610b0257829003601f168201915b5050505050905090565b610b3b610b34610dce565b83836113ec565b5050565b600b6020528060005260406000206000915090505481565b610b62848484610594565b610b76610b6d610dce565b8585858561155b565b50505050565b6060610b878261170c565b9050919050565b6000600560008473ffffffffffffffffffffffffffffffffffffffff1673ffffffffffffffffffffffffffffffffffffffff16815260200190815260200160002060008373ffffffffffffffffffffffffffffffffffffffff1673ffffffffffffffffffffffffffffffffffffffff16815260200190815260200160002060009054906101000a900460ff16905092915050565b610c2a611002565b600073ffffffffffffffffffffffffffffffffffffffff168173ffffffffffffffffffffffffffffffffffffffff1603610c9c5760006040517f1e4fbdf7000000000000000000000000000000000000000000000000000000008152600401610c939190612298565b60405180910390fd5b610ca581611326565b50565b6000634906490660e01b7bffffffffffffffffffffffffffffffffffffffffffffffffffffffff1916827bffffffffffffffffffffffffffffffffffffffffffffffffffffffff19161480610d025750610d018261181f565b5b9050919050565b600080610d1583611089565b9050600073ffffffffffffffffffffffffffffffffffffffff168173ffffffffffffffffffffffffffffffffffffffff1603610d8857826040517f7e273289000000000000000000000000000000000000000000000000000000008152600401610d7f919061232e565b60405180910390fd5b80915050919050565b60006004600083815260200190815260200160002060009054906101000a900473ffffffffffffffffffffffffffffffffffffffff169050919050565b600033905090565b610de38383836001611901565b505050565b600080610df484611089565b9050600073ffffffffffffffffffffffffffffffffffffffff168373ffffffffffffffffffffffffffffffffffffffff1614610e3657610e35818486611ac6565b5b600073ffffffffffffffffffffffffffffffffffffffff168173ffffffffffffffffffffffffffffffffffffffff1614610ec757610e78600085600080611901565b6001600360008373ffffffffffffffffffffffffffffffffffffffff1673ffffffffffffffffffffffffffffffffffffffff168152602001908152602001600020600082825403925050819055505b600073ffffffffffffffffffffffffffffffffffffffff168573ffffffffffffffffffffffffffffffffffffffff1614610f4a576001600360008773ffffffffffffffffffffffffffffffffffffffff1673ffffffffffffffffffffffffffffffffffffffff168152602001908152602001600020600082825401925050819055505b846002600086815260200190815260200160002060006101000a81548173ffffffffffffffffffffffffffffffffffffffff021916908373ffffffffffffffffffffffffffffffffffffffff160217905550838573ffffffffffffffffffffffffffffffffffffffff168273ffffffffffffffffffffffffffffffffffffffff167fddf252ad1be2c89b69c2b068fc378daa952ba7f163c4a11628f55a4df523b3ef60405160405180910390a4809150509392505050565b61100a610dce565b73ffffffffffffffffffffffffffffffffffffffff166110286109cd565b73ffffffffffffffffffffffffffffffffffffffff16146110875761104b610dce565b6040517f118cdaa700000000000000000000000000000000000000000000000000000000815260040161107e9190612298565b60405180910390fd5b565b60006002600083815260200190815260200160002060009054906101000a900473ffffffffffffffffffffffffffffffffffffffff169050919050565b6110e0828260405180602001604052806000815250611b8a565b5050565b60606000820361112b576040518060400160405280600181526020017f3000000000000000000000000000000000000000000000000000000000000000815250905061123f565b600082905060005b6000821461115d57808061114690612a6e565b915050600a826111569190612b45565b9150611133565b60008167ffffffffffffffff811115611179576111786123a6565b5b6040519080825280601f01601f1916602001820160405280156111ab5781602001600182028036833780820191505090505b5090505b60008514611238576001826111c49190612b76565b9150600a856111d39190612baa565b60306111df9190612bdb565b60f81b8183815181106111f5576111f4612c0f565b5b60200101907effffffffffffffffffffffffffffffffffffffffffffffffffffffffffffff1916908160001a905350600a856112319190612b45565b94506111af565b8093505050505b919050565b80600660008481526020019081526020016000209081611264919061296d565b507ff8e1a15aba9398e019f0b49df1a4fde98ee17ae345cb5f6b5e2c27f5033e8ce782604051611294919061232e565b60405180910390a15050565b60006112af6000836000610de8565b9050600073ffffffffffffffffffffffffffffffffffffffff168173ffffffffffffffffffffffffffffffffffffffff160361132257816040517f7e273289000000000000000000000000000000000000000000000000000000008152600401611319919061232e565b60405180910390fd5b5050565b6000600760009054906101000a900473ffffffffffffffffffffffffffffffffffffffff16905081600760006101000a81548173ffffffffffffffffffffffffffffffffffffffff021916908373ffffffffffffffffffffffffffffffffffffffff1602179055508173ffffffffffffffffffffffffffffffffffffffff168173ffffffffffffffffffffffffffffffffffffffff167f8be0079c531659141344cd1fd0a4f28419497f9722a3daafe3b4186f6b6457e060405160405180910390a35050565b600073ffffffffffffffffffffffffffffffffffffffff168273ffffffffffffffffffffffffffffffffffffffff160361145d57816040517f5b08ba180000000000000000000000000000000000000000000000000000000081526004016114549190612298565b60405180910390fd5b80600560008573ffffffffffffffffffffffffffffffffffffffff1673ffffffffffffffffffffffffffffffffffffffff16815260200190815260200160002060008473ffffffffffffffffffffffffffffffffffffffff1673ffffffffffffffffffffffffffffffffffffffff16815260200190815260200160002060006101000a81548160ff0219169083151502179055508173ffffffffffffffffffffffffffffffffffffffff168373ffffffffffffffffffffffffffffffffffffffff167f17307eab39ab6107e8899845ad3d59bd9653f200f220920489ca2b5937696c318360405161154e9190612127565b60405180910390a3505050565b60008373ffffffffffffffffffffffffffffffffffffffff163b1115611705578273ffffffffffffffffffffffffffffffffffffffff1663150b7a02868685856040518563ffffffff1660e01b81526004016115ba9493929190612c93565b6020604051808303816000875af19250505080156115f657506040513d601f19601f820116820180604052508101906115f39190612cf4565b60015b61167a573d8060008114611626576040519150601f19603f3d011682016040523d82523d6000602084013e61162b565b606091505b50600081510361167257836040517f64a0ae920000000000000000000000000000000000000000000000000000000081526004016116699190612298565b60405180910390fd5b805181602001fd5b63150b7a0260e01b7bffffffffffffffffffffffffffffffffffffffffffffffffffffffff1916817bffffffffffffffffffffffffffffffffffffffffffffffffffffffff19161461170357836040517f64a0ae920000000000000000000000000000000000000000000000000000000081526004016116fa9190612298565b60405180910390fd5b505b5050505050565b606061171782610d09565b50600060066000848152602001908152602001600020805461173890612759565b80601f016020809104026020016040519081016040528092919081815260200182805461176490612759565b80156117b15780601f10611786576101008083540402835291602001916117b1565b820191906000526020600020905b81548152906001019060200180831161179457829003601f168201915b5050505050905060006117c2611bae565b905060008151036117d757819250505061181a565b60008251111561180c5780826040516020016117f4929190612af2565b6040516020818303038152906040529250505061181a565b61181584611bc5565b925050505b919050565b60007f80ac58cd000000000000000000000000000000000000000000000000000000007bffffffffffffffffffffffffffffffffffffffffffffffffffffffff1916827bffffffffffffffffffffffffffffffffffffffffffffffffffffffff191614806118ea57507f5b5e139f000000000000000000000000000000000000000000000000000000007bffffffffffffffffffffffffffffffffffffffffffffffffffffffff1916827bffffffffffffffffffffffffffffffffffffffffffffffffffffffff1916145b806118fa57506118f982611c2e565b5b9050919050565b808061193a5750600073ffffffffffffffffffffffffffffffffffffffff168273ffffffffffffffffffffffffffffffffffffffff1614155b15611a6e57600061194a84610d09565b9050600073ffffffffffffffffffffffffffffffffffffffff168373ffffffffffffffffffffffffffffffffffffffff16141580156119b557508273ffffffffffffffffffffffffffffffffffffffff168173ffffffffffffffffffffffffffffffffffffffff1614155b80156119c857506119c68184610b8e565b155b15611a0a57826040517fa9fbf51f000000000000000000000000000000000000000000000000000000008152600401611a019190612298565b60405180910390fd5b8115611a6c57838573ffffffffffffffffffffffffffffffffffffffff168273ffffffffffffffffffffffffffffffffffffffff167f8c5be1e5ebec7d5bd14f71427d1e84f3dd0314c0f7b2291e5b200ac8c7c3b92560405160405180910390a45b505b836004600085815260200190815260200160002060006101000a81548173ffffffffffffffffffffffffffffffffffffffff021916908373ffffffffffffffffffffffffffffffffffffffff16021790555050505050565b611ad1838383611c98565b611b8557600073ffffffffffffffffffffffffffffffffffffffff168373ffffffffffffffffffffffffffffffffffffffff1603611b4657806040517f7e273289000000000000000000000000000000000000000000000000000000008152600401611b3d919061232e565b60405180910390fd5b81816040517f177e802f000000000000000000000000000000000000000000000000000000008152600401611b7c929190612d21565b60405180910390fd5b505050565b611b948383611d59565b611ba9611b9f610dce565b600085858561155b565b505050565b606060405180602001604052806000815250905090565b6060611bd082610d09565b506000611bdb611bae565b90506000815111611bfb5760405180602001604052806000815250611c26565b80611c0584611e52565b604051602001611c16929190612af2565b6040516020818303038152906040525b915050919050565b60007f01ffc9a7000000000000000000000000000000000000000000000000000000007bffffffffffffffffffffffffffffffffffffffffffffffffffffffff1916827bffffffffffffffffffffffffffffffffffffffffffffffffffffffff1916149050919050565b60008073ffffffffffffffffffffffffffffffffffffffff168373ffffffffffffffffffffffffffffffffffffffff1614158015611d5057508273ffffffffffffffffffffffffffffffffffffffff168473ffffffffffffffffffffffffffffffffffffffff161480611d115750611d108484610b8e565b5b80611d4f57508273ffffffffffffffffffffffffffffffffffffffff16611d3783610d91565b73ffffffffffffffffffffffffffffffffffffffff16145b5b90509392505050565b600073ffffffffffffffffffffffffffffffffffffffff168273ffffffffffffffffffffffffffffffffffffffff1603611dcb5760006040517f64a0ae92000000000000000000000000000000000000000000000000000000008152600401611dc29190612298565b60405180910390fd5b6000611dd983836000610de8565b9050600073ffffffffffffffffffffffffffffffffffffffff168173ffffffffffffffffffffffffffffffffffffffff1614611e4d5760006040517f73c6ac6e000000000000000000000000000000000000000000000000000000008152600401611e449190612298565b60405180910390fd5b505050565b606060006001611e6184611f20565b01905060008167ffffffffffffffff811115611e8057611e7f6123a6565b5b6040519080825280601f01601f191660200182016040528015611eb25781602001600182028036833780820191505090505b509050600082602001820190505b600115611f15578080600190039150507f3031323334353637383961626364656600000000000000000000000000000000600a86061a8153600a8581611f0957611f08612b16565b5b04945060008503611ec0575b819350505050919050565b600080600090507a184f03e93ff9f4daa797ed6e38ed64bf6a1f0100000000000000008310611f7e577a184f03e93ff9f4daa797ed6e38ed64bf6a1f0100000000000000008381611f7457611f73612b16565b5b0492506040810190505b6d04ee2d6d415b85acef81000000008310611fbb576d04ee2d6d415b85acef81000000008381611fb157611fb0612b16565b5b0492506020810190505b662386f26fc100008310611fea57662386f26fc100008381611fe057611fdf612b16565b5b0492506010810190505b6305f5e1008310612013576305f5e100838161200957612008612b16565b5b0492506008810190505b612710831061203857612710838161202e5761202d612b16565b5b0492506004810190505b6064831061205b576064838161205157612050612b16565b5b0492506002810190505b600a831061206a576001810190505b80915050919050565b6000604051905090565b600080fd5b600080fd5b60007fffffffff0000000000000000000000000000000000000000000000000000000082169050919050565b6120bc81612087565b81146120c757600080fd5b50565b6000813590506120d9816120b3565b92915050565b6000602082840312156120f5576120f461207d565b5b6000612103848285016120ca565b91505092915050565b60008115159050919050565b6121218161210c565b82525050565b600060208201905061213c6000830184612118565b92915050565b600081519050919050565b600082825260208201905092915050565b60005b8381101561217c578082015181840152602081019050612161565b60008484015250505050565b6000601f19601f8301169050919050565b60006121a482612142565b6121ae818561214d565b93506121be81856020860161215e565b6121c781612188565b840191505092915050565b600060208201905081810360008301526121ec8184612199565b905092915050565b6000819050919050565b612207816121f4565b811461221257600080fd5b50565b600081359050612224816121fe565b92915050565b6000602082840312156122405761223f61207d565b5b600061224e84828501612215565b91505092915050565b600073ffffffffffffffffffffffffffffffffffffffff82169050919050565b600061228282612257565b9050919050565b61229281612277565b82525050565b60006020820190506122ad6000830184612289565b92915050565b6122bc81612277565b81146122c757600080fd5b50565b6000813590506122d9816122b3565b92915050565b600080604083850312156122f6576122f561207d565b5b6000612304858286016122ca565b925050602061231585828601612215565b9150509250929050565b612328816121f4565b82525050565b6000602082019050612343600083018461231f565b92915050565b6000806000606084860312156123625761236161207d565b5b6000612370868287016122ca565b9350506020612381868287016122ca565b925050604061239286828701612215565b9150509250925092565b600080fd5b600080fd5b7f4e487b7100000000000000000000000000000000000000000000000000000000600052604160045260246000fd5b6123de82612188565b810181811067ffffffffffffffff821117156123fd576123fc6123a6565b5b80604052505050565b6000612410612073565b905061241c82826123d5565b919050565b600067ffffffffffffffff82111561243c5761243b6123a6565b5b61244582612188565b9050602081019050919050565b82818337600083830152505050565b600061247461246f84612421565b612406565b9050828152602081018484840111156124905761248f6123a1565b5b61249b848285612452565b509392505050565b600082601f8301126124b8576124b761239c565b5b81356124c8848260208601612461565b91505092915050565b600080604083850312156124e8576124e761207d565b5b60006124f685828601612215565b925050602083013567ffffffffffffffff81111561251757612516612082565b5b612523858286016124a3565b9150509250929050565b6000602082840312156125435761254261207d565b5b6000612551848285016122ca565b91505092915050565b6125638161210c565b811461256e57600080fd5b50565b6000813590506125808161255a565b92915050565b6000806040838503121561259d5761259c61207d565b5b60006125ab858286016122ca565b92505060206125bc85828601612571565b9150509250929050565b600067ffffffffffffffff8211156125e1576125e06123a6565b5b6125ea82612188565b9050602081019050919050565b600061260a612605846125c6565b612406565b905082815260208101848484011115612626576126256123a1565b5b612631848285612452565b509392505050565b600082601f83011261264e5761264d61239c565b5b813561265e8482602086016125f7565b91505092915050565b600080600080608085870312156126815761268061207d565b5b600061268f878288016122ca565b94505060206126a0878288016122ca565b93505060406126b187828801612215565b925050606085013567ffffffffffffffff8111156126d2576126d1612082565b5b6126de87828801612639565b91505092959194509250565b600080604083850312156127015761270061207d565b5b600061270f858286016122ca565b9250506020612720858286016122ca565b9150509250929050565b7f4e487b7100000000000000000000000000000000000000000000000000000000600052602260045260246000fd5b6000600282049050600182168061277157607f821691505b6020821081036127845761278361272a565b5b50919050565b600060608201905061279f6000830186612289565b6127ac602083018561231f565b6127b96040830184612289565b949350505050565b60008190508160005260206000209050919050565b60006020601f8301049050919050565b600082821b905092915050565b6000600883026128237fffffffffffffffffffffffffffffffffffffffffffffffffffffffffffffffff826127e6565b61282d86836127e6565b95508019841693508086168417925050509392505050565b6000819050919050565b600061286a612865612860846121f4565b612845565b6121f4565b9050919050565b6000819050919050565b6128848361284f565b61289861289082612871565b8484546127f3565b825550505050565b600090565b6128ad6128a0565b6128b881848461287b565b505050565b5b818110156128dc576128d16000826128a5565b6001810190506128be565b5050565b601f821115612921576128f2816127c1565b6128fb846127d6565b8101602085101561290a578190505b61291e612916856127d6565b8301826128bd565b50505b505050565b600082821c905092915050565b600061294460001984600802612926565b1980831691505092915050565b600061295d8383612933565b9150826002028217905092915050565b61297682612142565b67ffffffffffffffff81111561298f5761298e6123a6565b5b6129998254612759565b6129a48282856128e0565b600060209050601f8311600181146129d757600084156129c5578287015190505b6129cf8582612951565b865550612a37565b601f1984166129e5866127c1565b60005b82811015612a0d578489015182556001820191506020850194506020810190506129e8565b86831015612a2a5784890151612a26601f891682612933565b8355505b6001600288020188555050505b505050505050565b7f4e487b7100000000000000000000000000000000000000000000000000000000600052601160045260246000fd5b6000612a79826121f4565b91507fffffffffffffffffffffffffffffffffffffffffffffffffffffffffffffffff8203612aab57612aaa612a3f565b5b600182019050919050565b600081905092915050565b6000612acc82612142565b612ad68185612ab6565b9350612ae681856020860161215e565b80840191505092915050565b6000612afe8285612ac1565b9150612b0a8284612ac1565b91508190509392505050565b7f4e487b7100000000000000000000000000000000000000000000000000000000600052601260045260246000fd5b6000612b50826121f4565b9150612b5b836121f4565b925082612b6b57612b6a612b16565b5b828204905092915050565b6000612b81826121f4565b9150612b8c836121f4565b9250828203905081811115612ba457612ba3612a3f565b5b92915050565b6000612bb5826121f4565b9150612bc0836121f4565b925082612bd057612bcf612b16565b5b828206905092915050565b6000612be6826121f4565b9150612bf1836121f4565b9250828201905080821115612c0957612c08612a3f565b5b92915050565b7f4e487b7100000000000000000000000000000000000000000000000000000000600052603260045260246000fd5b600081519050919050565b600082825260208201905092915050565b6000612c6582612c3e565b612c6f8185612c49565b9350612c7f81856020860161215e565b612c8881612188565b840191505092915050565b6000608082019050612ca86000830187612289565b612cb56020830186612289565b612cc2604083018561231f565b8181036060830152612cd48184612c5a565b905095945050505050565b600081519050612cee816120b3565b92915050565b600060208284031215612d0a57612d0961207d565b5b6000612d1884828501612cdf565b91505092915050565b6000604082019050612d366000830185612289565b612d43602083018461231f565b939250505056fea264697066735822122080bc7eeeecacc61d7c83845bceda12c28744b0e8c95a0ce99e9c715e20d7b3c664736f6c634300081c0033",
  "linkReferences": {},
  "deployedLinkReferences": {}
}