{
  "_format": "hh-sol-artifact-1",
  "contractName": "DripDropCafe",
  "sourceName": "contracts/DripDropCafe.sol",
  "abi": [
    {
      "inputs": [
        {
          "internalType": "address",
          "name": "_payment",
          "type": "address"
        }
      ],
      "stateMutability": "nonpayable",
      "type": "constructor"
    },
    {
      "inputs": [],
      "name": "IncorrectGrid",
      "type": "error"
    },
    {
      "inputs": [],
      "name": "InvalidIngredientID",
      "type": "error"
    },
    {
      "inputs": [],
      "name": "MenuPriceNotSet",
      "type": "error"
    },
    {
      "inputs": [],
      "name": "NotOwner",
      "type": "error"
    },
    {
      "inputs": [
        {
          "internalType": "address",
          "name": "owner",
          "type": "address"
        }
      ],
      "name": "OwnableInvalidOwner",
      "type": "error"
    },
    {
      "inputs": [
        {
          "internalType": "address",
          "name": "account",
          "type": "address"
        }
      ],
      "name": "OwnableUnauthorizedAccount",
      "type": "error"
    },
    {
      "inputs": [],
      "name": "PaymentFailed",
      "type": "error"
    },
    {
      "inputs": [],
      "name": "RecipeNotSet",
      "type": "error"
    },
    {
      "inputs": [],
      "name": "ReentrancyGuardReentrantCall",
      "type": "error"
    },
    {
      "inputs": [],
      "name": "TransferFailed",
      "type": "error"
    },
    {
      "anonymous": false,
      "inputs": [
        {
          "indexed": true,
          "internalType": "address",
          "name": "user",
          "type": "address"
        },
        {
          "indexed": true,
          "internalType": "uint256",
          "name": "menuId",
          "type": "uint256"
        },
        {
          "indexed": true,
          "internalType": "uint256",
          "name": "tokenId",
          "type": "uint256"
        }
      ],
      "name": "Crafted",
      "type": "event"
    },
    {
      "anonymous": false,
      "inputs": [
        {
          "indexed": true,
          "internalType": "address",
          "name": "user",
          "type": "address"
        },
        {
          "indexed": true,
          "internalType": "uint256",
          "name": "menuId",
          "type": "uint256"
        },
        {
          "indexed": false,
          "internalType": "uint8",
          "name": "ingredientId",
          "type": "uint8"
        }
      ],
      "name": "MenuOrdered",
      "type": "event"
    },
    {
      "anonymous": false,
      "inputs": [
        {
          "indexed": true,
          "internalType": "uint256",
          "name": "menuId",
          "type": "uint256"
        },
        {
          "indexed": false,
          "internalType": "uint256",
          "name": "price",
          "type": "uint256"
        }
      ],
      "name": "MenuPriceSet",
      "type": "event"
    },
    {
      "anonymous": false,
      "inputs": [
        {
          "indexed": true,
          "internalType": "address",
          "name": "previousOwner",
          "type": "address"
        },
        {
          "indexed": true,
          "internalType": "address",
          "name": "newOwner",
          "type": "address"
        }
      ],
      "name": "OwnershipTransferred",
      "type": "event"
    },
    {
      "anonymous": false,
      "inputs": [
        {
          "indexed": true,
          "internalType": "uint256",
          "name": "menuId",
          "type": "uint256"
        }
      ],
      "name": "RecipeSet",
      "type": "event"
    },
    {
      "anonymous": false,
      "inputs": [
        {
          "indexed": true,
          "internalType": "address",
          "name": "user",
          "type": "address"
        },
        {
          "indexed": true,
          "internalType": "uint256",
          "name": "tokenId",
          "type": "uint256"
        }
      ],
      "name": "Redeemed",
      "type": "event"
    },
    {
      "inputs": [],
      "name": "EMPTY",
      "outputs": [
        {
          "internalType": "uint8",
          "name": "",
          "type": "uint8"
        }
      ],
      "stateMutability": "view",
      "type": "function"
    },
    {
      "inputs": [
        {
          "internalType": "uint256",
          "name": "",
          "type": "uint256"
        }
      ],
      "name": "baseURIs",
      "outputs": [
        {
          "internalType": "string",
          "name": "",
          "type": "string"
        }
      ],
      "stateMutability": "view",
      "type": "function"
    },
    {
      "inputs": [
        {
          "internalType": "uint256",
          "name": "tokenId",
          "type": "uint256"
        }
      ],
      "name": "burnCoffeeNFT",
      "outputs": [],
      "stateMutability": "nonpayable",
      "type": "function"
    },
    {
      "inputs": [],
      "name": "coffeeNFT",
      "outputs": [
        {
          "internalType": "contract CoffeeNFT",
          "name": "",
          "type": "address"
        }
      ],
      "stateMutability": "view",
      "type": "function"
    },
    {
      "inputs": [
        {
          "internalType": "uint256",
          "name": "menuId",
          "type": "uint256"
        },
        {
          "internalType": "uint8[9]",
          "name": "pattern",
          "type": "uint8[9]"
        }
      ],
      "name": "craftCoffee",
      "outputs": [],
      "stateMutability": "nonpayable",
      "type": "function"
    },
    {
      "inputs": [
        {
          "internalType": "uint8[9]",
          "name": "pattern",
          "type": "uint8[9]"
        }
      ],
      "name": "findMatchingRecipe",
      "outputs": [
        {
          "internalType": "uint256",
          "name": "",
          "type": "uint256"
        }
      ],
      "stateMutability": "view",
      "type": "function"
    },
    {
      "inputs": [],
      "name": "getAllMenus",
      "outputs": [
        {
          "internalType": "uint256[]",
          "name": "menuIds",
          "type": "uint256[]"
        },
        {
          "internalType": "uint256[]",
          "name": "prices",
          "type": "uint256[]"
        },
        {
          "internalType": "bool[]",
          "name": "hasRecipes",
          "type": "bool[]"
        },
        {
          "internalType": "string[]",
          "name": "baseURIList",
          "type": "string[]"
        }
      ],
      "stateMutability": "view",
      "type": "function"
    },
    {
      "inputs": [
        {
          "internalType": "uint256",
          "name": "id",
          "type": "uint256"
        }
      ],
      "name": "getIngredientName",
      "outputs": [
        {
          "internalType": "string",
          "name": "",
          "type": "string"
        }
      ],
      "stateMutability": "view",
      "type": "function"
    },
    {
      "inputs": [
        {
          "internalType": "uint256",
          "name": "menuId",
          "type": "uint256"
        }
      ],
      "name": "getMenuBaseURI",
      "outputs": [
        {
          "internalType": "string",
          "name": "",
          "type": "string"
        }
      ],
      "stateMutability": "view",
      "type": "function"
    },
    {
      "inputs": [
        {
          "internalType": "uint256",
          "name": "menuId",
          "type": "uint256"
        }
      ],
      "name": "getMenuInfo",
      "outputs": [
        {
          "internalType": "uint256",
          "name": "price",
          "type": "uint256"
        },
        {
          "internalType": "bool",
          "name": "hasRecipe",
          "type": "bool"
        },
        {
          "internalType": "string",
          "name": "baseURI",
          "type": "string"
        },
        {
          "internalType": "uint8[9]",
          "name": "pattern",
          "type": "uint8[9]"
        }
      ],
      "stateMutability": "view",
      "type": "function"
    },
    {
      "inputs": [
        {
          "internalType": "uint256",
          "name": "menuId",
          "type": "uint256"
        }
      ],
      "name": "getMenuPrice",
      "outputs": [
        {
          "internalType": "uint256",
          "name": "",
          "type": "uint256"
        }
      ],
      "stateMutability": "view",
      "type": "function"
    },
    {
      "inputs": [],
      "name": "getMenusWithRecipes",
      "outputs": [
        {
          "internalType": "uint256[]",
          "name": "",
          "type": "uint256[]"
        }
      ],
      "stateMutability": "view",
      "type": "function"
    },
    {
      "inputs": [
        {
          "internalType": "uint256",
          "name": "menuId",
          "type": "uint256"
        }
      ],
      "name": "getRecipeHash",
      "outputs": [
        {
          "internalType": "bytes32",
          "name": "",
          "type": "bytes32"
        }
      ],
      "stateMutability": "view",
      "type": "function"
    },
    {
      "inputs": [
        {
          "internalType": "uint256",
          "name": "menuId",
          "type": "uint256"
        }
      ],
      "name": "getRecipePattern",
      "outputs": [
        {
          "internalType": "uint8[9]",
          "name": "",
          "type": "uint8[9]"
        }
      ],
      "stateMutability": "view",
      "type": "function"
    },
    {
      "inputs": [],
      "name": "getValidIngredients",
      "outputs": [
        {
          "internalType": "uint256[]",
          "name": "",
          "type": "uint256[]"
        }
      ],
      "stateMutability": "view",
      "type": "function"
    },
    {
      "inputs": [
        {
          "internalType": "address",
          "name": "user",
          "type": "address"
        },
        {
          "internalType": "uint8[9]",
          "name": "pattern",
          "type": "uint8[9]"
        }
      ],
      "name": "hasRequiredIngredients",
      "outputs": [
        {
          "internalType": "bool",
          "name": "",
          "type": "bool"
        }
      ],
      "stateMutability": "view",
      "type": "function"
    },
    {
      "inputs": [],
      "name": "ingredient",
      "outputs": [
        {
          "internalType": "contract IngredientToken",
          "name": "",
          "type": "address"
        }
      ],
      "stateMutability": "view",
      "type": "function"
    },
    {
      "inputs": [
        {
          "internalType": "uint256",
          "name": "",
          "type": "uint256"
        }
      ],
      "name": "menuPrices",
      "outputs": [
        {
          "internalType": "uint256",
          "name": "",
          "type": "uint256"
        }
      ],
      "stateMutability": "view",
      "type": "function"
    },
    {
      "inputs": [
        {
          "internalType": "uint256",
          "name": "menuId",
          "type": "uint256"
        }
      ],
      "name": "orderMenu",
      "outputs": [],
      "stateMutability": "nonpayable",
      "type": "function"
    },
    {
      "inputs": [],
      "name": "owner",
      "outputs": [
        {
          "internalType": "address",
          "name": "",
          "type": "address"
        }
      ],
      "stateMutability": "view",
      "type": "function"
    },
    {
      "inputs": [],
      "name": "payment",
      "outputs": [
        {
          "internalType": "contract MockPaymentToken",
          "name": "",
          "type": "address"
        }
      ],
      "stateMutability": "view",
      "type": "function"
    },
    {
      "inputs": [
        {
          "internalType": "uint256",
          "name": "",
          "type": "uint256"
        }
      ],
      "name": "recipes",
      "outputs": [
        {
          "internalType": "bytes32",
          "name": "hash",
          "type": "bytes32"
        }
      ],
      "stateMutability": "view",
      "type": "function"
    },
    {
      "inputs": [
        {
          "internalType": "uint256",
          "name": "tokenId",
          "type": "uint256"
        }
      ],
      "name": "redeemCoffee",
      "outputs": [],
      "stateMutability": "nonpayable",
      "type": "function"
    },
    {
      "inputs": [
        {
          "internalType": "uint256",
          "name": "id",
          "type": "uint256"
        },
        {
          "internalType": "string",
          "name": "name",
          "type": "string"
        }
      ],
      "name": "registerIngredient",
      "outputs": [],
      "stateMutability": "nonpayable",
      "type": "function"
    },
    {
      "inputs": [
        {
          "internalType": "uint256",
          "name": "id",
          "type": "uint256"
        }
      ],
      "name": "removeIngredient",
      "outputs": [],
      "stateMutability": "nonpayable",
      "type": "function"
    },
    {
      "inputs": [],
      "name": "renounceOwnership",
      "outputs": [],
      "stateMutability": "nonpayable",
      "type": "function"
    },
    {
      "inputs": [
        {
          "internalType": "uint256",
          "name": "menuId",
          "type": "uint256"
        },
        {
          "internalType": "uint256",
          "name": "price",
          "type": "uint256"
        }
      ],
      "name": "setMenuPrice",
      "outputs": [],
      "stateMutability": "nonpayable",
      "type": "function"
    },
    {
      "inputs": [
        {
          "internalType": "uint256",
          "name": "menuId",
          "type": "uint256"
        },
        {
          "internalType": "uint8[9]",
          "name": "pattern",
          "type": "uint8[9]"
        },
        {
          "internalType": "string",
          "name": "uriPrefix",
          "type": "string"
        }
      ],
      "name": "setRecipe",
      "outputs": [],
      "stateMutability": "nonpayable",
      "type": "function"
    },
    {
      "inputs": [
        {
          "internalType": "address",
          "name": "newOwner",
          "type": "address"
        }
      ],
      "name": "transferOwnership",
      "outputs": [],
      "stateMutability": "nonpayable",
      "type": "function"
    },
    {
      "inputs": [
        {
          "internalType": "uint256",
          "name": "menuId",
          "type": "uint256"
        },
        {
          "internalType": "uint8[9]",
          "name": "pattern",
          "type": "uint8[9]"
        }
      ],
      "name": "validatePattern",
      "outputs": [
        {
          "internalType": "bool",
          "name": "",
          "type": "bool"
        }
      ],
      "stateMutability": "view",
      "type": "function"
    },
    {
      "inputs": [
        {
          "internalType": "address",
          "name": "to",
          "type": "address"
        },
        {
          "internalType": "uint256",
          "name": "amount",
          "type": "uint256"
        }
      ],
      "name": "withdrawPayments",
      "outputs": [],
      "stateMutability": "nonpayable",
      "type": "function"
    }
  ],
  "bytecode": "0x60e060405234801561001057600080fd5b5060405161b1c438038061b1c4833981810160405281019061003291906103c9565b33600073ffffffffffffffffffffffffffffffffffffffff168173ffffffffffffffffffffffffffffffffffffffff16036100a55760006040517f1e4fbdf700000000000000000000000000000000000000000000000000000000815260040161009c9190610405565b60405180910390fd5b6100b48161028860201b60201c565b50600180819055508073ffffffffffffffffffffffffffffffffffffffff1660808173ffffffffffffffffffffffffffffffffffffffff16815250506040516100fc9061034c565b604051809103906000f080158015610118573d6000803e3d6000fd5b5073ffffffffffffffffffffffffffffffffffffffff1660a08173ffffffffffffffffffffffffffffffffffffffff168152505060405161015890610359565b604051809103906000f080158015610174573d6000803e3d6000fd5b5073ffffffffffffffffffffffffffffffffffffffff1660c08173ffffffffffffffffffffffffffffffffffffffff168152505060a05173ffffffffffffffffffffffffffffffffffffffff1663f2fde38b306040518263ffffffff1660e01b81526004016101e39190610405565b600060405180830381600087803b1580156101fd57600080fd5b505af1158015610211573d6000803e3d6000fd5b5050505060c05173ffffffffffffffffffffffffffffffffffffffff1663f2fde38b306040518263ffffffff1660e01b81526004016102509190610405565b600060405180830381600087803b15801561026a57600080fd5b505af115801561027e573d6000803e3d6000fd5b5050505050610420565b60008060009054906101000a900473ffffffffffffffffffffffffffffffffffffffff169050816000806101000a81548173ffffffffffffffffffffffffffffffffffffffff021916908373ffffffffffffffffffffffffffffffffffffffff1602179055508173ffffffffffffffffffffffffffffffffffffffff168173ffffffffffffffffffffffffffffffffffffffff167f8be0079c531659141344cd1fd0a4f28419497f9722a3daafe3b4186f6b6457e060405160405180910390a35050565b613be0806142e283390190565b61330280617ec283390190565b600080fd5b600073ffffffffffffffffffffffffffffffffffffffff82169050919050565b60006103968261036b565b9050919050565b6103a68161038b565b81146103b157600080fd5b50565b6000815190506103c38161039d565b92915050565b6000602082840312156103df576103de610366565b5b60006103ed848285016103b4565b91505092915050565b6103ff8161038b565b82525050565b600060208201905061041a60008301846103f6565b92915050565b60805160a05160c051613e1c6104c66000396000818161082f01528181610916015281816114300152818161151701528181611a2501528181611efa0152611f9c015260008181610b6401528181610c3f01528181610e0401528181611051015281816110e301528181611a4b01528181611cf301528181611e1c0152818161209201526122b501526000818161073e01528181610bf50152610d270152613e1c6000f3fe608060405234801561001057600080fd5b50600436106101e55760003560e01c80637abf54641161010f578063e4ba3345116100a2578063f533ac2b11610071578063f533ac2b146105a8578063f63eb89d146105c4578063f90a7f4e146105e2578063fd7eb83314610612576101e5565b8063e4ba334514610522578063ef9528671461053e578063f208f8ce1461055c578063f2fde38b1461058c576101e5565b8063a400e1b5116100de578063a400e1b514610485578063aa8abf73146104a1578063c4ba5b46146104d1578063dee93892146104f2576101e5565b80637abf5464146103d75780638da5cb5b1461040757806391564206146104255780639c6845ac14610455576101e5565b8063443c227c116101875780635ffd0918116101565780635ffd09181461036357806370fa501c14610381578063715018a6146103b1578063772ffe4a146103bb576101e5565b8063443c227c146102c8578063447bf3a2146102f85780634a53ceec146103145780635dc37e2114610330576101e5565b806328e13efa116101c357806328e13efa1461025457806333abeeb51461027057806341d0f6411461028e57806342f6487a146102aa576101e5565b806301242f2f146101ea578063023991251461021a5780630e7afec514610238575b600080fd5b61020460048036038101906101ff9190612998565b610642565b60405161021191906129f4565b60405180910390f35b61022261072f565b60405161022f9190612a1e565b60405180910390f35b610252600480360381019061024d9190612a97565b610734565b005b61026e60048036038101906102699190612ad7565b61080e565b005b6102786109ee565b6040516102859190612bc2565b60405180910390f35b6102a860048036038101906102a39190612c99565b610b5a565b005b6102b2610bf3565b6040516102bf9190612d54565b60405180910390f35b6102e260048036038101906102dd9190612ad7565b610c17565b6040516102ef9190612d88565b60405180910390f35b610312600480360381019061030d9190612ad7565b610c35565b005b61032e60048036038101906103299190612ad7565b610ccb565b005b61034a60048036038101906103459190612ad7565b610eee565b60405161035a9493929190612edc565b60405180910390f35b61036b61104f565b6040516103789190612f4a565b60405180910390f35b61039b60048036038101906103969190612ad7565b611073565b6040516103a89190612f65565b60405180910390f35b6103b9611090565b005b6103d560048036038101906103d09190612f80565b6110a4565b005b6103f160048036038101906103ec9190612ff1565b6112a5565b6040516103fe9190612f65565b60405180910390f35b61040f611326565b60405161041c919061302e565b60405180910390f35b61043f600480360381019061043a9190612ad7565b61134f565b60405161044c9190613049565b60405180910390f35b61046f600480360381019061046a9190612ad7565b6113ef565b60405161047c9190612d88565b60405180910390f35b61049f600480360381019061049a9190612ad7565b61140f565b005b6104bb60048036038101906104b69190612ad7565b6115ef565b6040516104c89190613049565b60405180910390f35b6104d9611694565b6040516104e99493929190613235565b60405180910390f35b61050c60048036038101906105079190612ad7565b611940565b6040516105199190613296565b60405180910390f35b61053c600480360381019061053791906132b2565b6119c7565b005b610546611a23565b6040516105539190613313565b60405180910390f35b61057660048036038101906105719190612ad7565b611a47565b6040516105839190613049565b60405180910390f35b6105a660048036038101906105a1919061332e565b611aef565b005b6105c260048036038101906105bd9190612998565b611b75565b005b6105cc61208e565b6040516105d99190612bc2565b60405180910390f35b6105fc60048036038101906105f79190612ad7565b612129565b6040516106099190612f65565b60405180910390f35b61062c6004803603810190610627919061335b565b612141565b60405161063991906129f4565b60405180910390f35b6000806002600085815260200190815260200160002060405180604001604052908160008201548152602001600182016009806020026040519081016040528092919082600980156106cf576020028201916000905b82829054906101000a900460ff1660ff16815260200190600101906020826000010492830192600103820291508084116106985790505b50505050508152505090506000801b8160000151036106f2576000915050610729565b6000836040516020016107059190613425565b60405160208183030381529060405280519060200120905081600001518114925050505b92915050565b600081565b61073c612394565b7f000000000000000000000000000000000000000000000000000000000000000073ffffffffffffffffffffffffffffffffffffffff1663a9059cbb83836040518363ffffffff1660e01b8152600401610797929190613441565b6020604051808303816000875af19250505080156107d357506040513d601f19601f820116820180604052508101906107d09190613496565b60015b610809576040517f90b8ec1800000000000000000000000000000000000000000000000000000000815260040160405180910390fd5b505050565b61081661241b565b3373ffffffffffffffffffffffffffffffffffffffff167f000000000000000000000000000000000000000000000000000000000000000073ffffffffffffffffffffffffffffffffffffffff16636352211e836040518263ffffffff1660e01b81526004016108869190612f65565b602060405180830381865afa1580156108a3573d6000803e3d6000fd5b505050506040513d601f19601f820116820180604052508101906108c791906134d8565b73ffffffffffffffffffffffffffffffffffffffff1614610914576040517f30cd747100000000000000000000000000000000000000000000000000000000815260040160405180910390fd5b7f000000000000000000000000000000000000000000000000000000000000000073ffffffffffffffffffffffffffffffffffffffff166342966c68826040518263ffffffff1660e01b815260040161096d9190612f65565b600060405180830381600087803b15801561098757600080fd5b505af115801561099b573d6000803e3d6000fd5b50505050803373ffffffffffffffffffffffffffffffffffffffff167f4896181ff8f4543cc00db9fe9b6fb7e6f032b7eb772c72ab1ec1b4d2e03b936960405160405180910390a36109eb612461565b50565b60606000601567ffffffffffffffff811115610a0d57610a0c61282e565b5b604051908082528060200260200182016040528015610a3b5781602001602082028036833780820191505090505b509050600080600190505b60158111610ab0576000801b600260008381526020019081526020016000206000015414610a9d5780838381518110610a8257610a81613505565b5b6020026020010181815250508180610a9990613563565b9250505b8080610aa890613563565b915050610a46565b5060008167ffffffffffffffff811115610acd57610acc61282e565b5b604051908082528060200260200182016040528015610afb5781602001602082028036833780820191505090505b50905060005b82811015610b5057838181518110610b1c57610b1b613505565b5b6020026020010151828281518110610b3757610b36613505565b5b6020026020010181815250508080600101915050610b01565b5080935050505090565b610b62612394565b7f000000000000000000000000000000000000000000000000000000000000000073ffffffffffffffffffffffffffffffffffffffff166341d0f64183836040518363ffffffff1660e01b8152600401610bbd9291906135ab565b600060405180830381600087803b158015610bd757600080fd5b505af1158015610beb573d6000803e3d6000fd5b505050505050565b7f000000000000000000000000000000000000000000000000000000000000000081565b60026020528060005260406000206000915090508060000154905081565b610c3d612394565b7f000000000000000000000000000000000000000000000000000000000000000073ffffffffffffffffffffffffffffffffffffffff1663447bf3a2826040518263ffffffff1660e01b8152600401610c969190612f65565b600060405180830381600087803b158015610cb057600080fd5b505af1158015610cc4573d6000803e3d6000fd5b5050505050565b610cd361241b565b60006003600083815260200190815260200160002054905060008103610d25576040517ff41dc06e00000000000000000000000000000000000000000000000000000000815260040160405180910390fd5b7f000000000000000000000000000000000000000000000000000000000000000073ffffffffffffffffffffffffffffffffffffffff166323b872dd3330846040518463ffffffff1660e01b8152600401610d82939291906135db565b6020604051808303816000875af1925050508015610dbe57506040513d601f19601f82011682018060405250810190610dbb9190613496565b60015b610df4576040517ff499da2000000000000000000000000000000000000000000000000000000000815260040160405180910390fd5b506000610e008361246a565b90507f000000000000000000000000000000000000000000000000000000000000000073ffffffffffffffffffffffffffffffffffffffff1663731133e9338360016040518463ffffffff1660e01b8152600401610e60939291906136b5565b600060405180830381600087803b158015610e7a57600080fd5b505af1158015610e8e573d6000803e3d6000fd5b50505050823373ffffffffffffffffffffffffffffffffffffffff167f82af6daccc26491c4b2117ddb2053d25bfe7e438ad55ed6dc1eadaf56d9134a683604051610ed99190612a1e565b60405180910390a35050610eeb612461565b50565b6000806060610efb6126d1565b600360008681526020019081526020016000205493506000801b600260008781526020019081526020016000206000015414159250600460008681526020019081526020016000208054610f4e9061372e565b80601f0160208091040260200160405190810160405280929190818152602001828054610f7a9061372e565b8015610fc75780601f10610f9c57610100808354040283529160200191610fc7565b820191906000526020600020905b815481529060010190602001808311610faa57829003601f168201915b5050505050915060026000868152602001908152602001600020600101600980602002604051908101604052809291908260098015611041576020028201916000905b82829054906101000a900460ff1660ff168152602001906001019060208260000104928301926001038202915080841161100a5790505b505050505090509193509193565b7f000000000000000000000000000000000000000000000000000000000000000081565b600060036000838152602001908152602001600020549050919050565b611098612394565b6110a26000612605565b565b6110ac612394565b60005b60098110156111d857600060ff168382600981106110d0576110cf613505565b5b602002015160ff161415801561119457507f000000000000000000000000000000000000000000000000000000000000000073ffffffffffffffffffffffffffffffffffffffff16635c8ad6c78483600981106111305761112f613505565b5b60200201516040518263ffffffff1660e01b8152600401611151919061375f565b602060405180830381865afa15801561116e573d6000803e3d6000fd5b505050506040513d601f19601f820116820180604052508101906111929190613496565b155b156111cb576040517fb026afda00000000000000000000000000000000000000000000000000000000815260040160405180910390fd5b80806001019150506110af565b506000826040516020016111ec9190613425565b604051602081830303815290604052805190602001209050604051806040016040528082815260200184815250600260008681526020019081526020016000206000820151816000015560208201518160010190600961124d9291906126f4565b5090505081600460008681526020019081526020016000209081611271919061391c565b50837f8793f079a2d45779487766f72e8687f6beee4d5c74a9bbbeb14be22f44531a1460405160405180910390a250505050565b600080826040516020016112b99190613425565b6040516020818303038152906040528051906020012090506000600190505b6015811161131a5781600260008381526020019081526020016000206000015403611307578092505050611321565b808061131290613563565b9150506112d8565b5060009150505b919050565b60008060009054906101000a900473ffffffffffffffffffffffffffffffffffffffff16905090565b6004602052806000526040600020600091509050805461136e9061372e565b80601f016020809104026020016040519081016040528092919081815260200182805461139a9061372e565b80156113e75780601f106113bc576101008083540402835291602001916113e7565b820191906000526020600020905b8154815290600101906020018083116113ca57829003601f168201915b505050505081565b600060026000838152602001908152602001600020600001549050919050565b61141761241b565b3373ffffffffffffffffffffffffffffffffffffffff167f000000000000000000000000000000000000000000000000000000000000000073ffffffffffffffffffffffffffffffffffffffff16636352211e836040518263ffffffff1660e01b81526004016114879190612f65565b602060405180830381865afa1580156114a4573d6000803e3d6000fd5b505050506040513d601f19601f820116820180604052508101906114c891906134d8565b73ffffffffffffffffffffffffffffffffffffffff1614611515576040517f30cd747100000000000000000000000000000000000000000000000000000000815260040160405180910390fd5b7f000000000000000000000000000000000000000000000000000000000000000073ffffffffffffffffffffffffffffffffffffffff166342966c68826040518263ffffffff1660e01b815260040161156e9190612f65565b600060405180830381600087803b15801561158857600080fd5b505af115801561159c573d6000803e3d6000fd5b50505050803373ffffffffffffffffffffffffffffffffffffffff167f4896181ff8f4543cc00db9fe9b6fb7e6f032b7eb772c72ab1ec1b4d2e03b936960405160405180910390a36115ec612461565b50565b606060046000838152602001908152602001600020805461160f9061372e565b80601f016020809104026020016040519081016040528092919081815260200182805461163b9061372e565b80156116885780601f1061165d57610100808354040283529160200191611688565b820191906000526020600020905b81548152906001019060200180831161166b57829003601f168201915b50505050509050919050565b6060806060806000601690508067ffffffffffffffff8111156116ba576116b961282e565b5b6040519080825280602002602001820160405280156116e85781602001602082028036833780820191505090505b5094508067ffffffffffffffff8111156117055761170461282e565b5b6040519080825280602002602001820160405280156117335781602001602082028036833780820191505090505b5093508067ffffffffffffffff8111156117505761174f61282e565b5b60405190808252806020026020018201604052801561177e5781602001602082028036833780820191505090505b5092508067ffffffffffffffff81111561179b5761179a61282e565b5b6040519080825280602002602001820160405280156117ce57816020015b60608152602001906001900390816117b95790505b50915060005b8181101561193857808682815181106117f0576117ef613505565b5b602002602001018181525050600360008281526020019081526020016000205485828151811061182357611822613505565b5b6020026020010181815250506000801b6002600083815260200190815260200160002060000154141584828151811061185f5761185e613505565b5b60200260200101901515908115158152505060046000828152602001908152602001600020805461188f9061372e565b80601f01602080910402602001604051908101604052809291908181526020018280546118bb9061372e565b80156119085780601f106118dd57610100808354040283529160200191611908565b820191906000526020600020905b8154815290600101906020018083116118eb57829003601f168201915b50505050508382815181106119205761191f613505565b5b602002602001018190525080806001019150506117d4565b505090919293565b6119486126d1565b600260008381526020019081526020016000206001016009806020026040519081016040528092919082600980156119bb576020028201916000905b82829054906101000a900460ff1660ff16815260200190600101906020826000010492830192600103820291508084116119845790505b50505050509050919050565b6119cf612394565b806003600084815260200190815260200160002081905550817fa55f0151b36fef535c750f525b9f9082bae75f218a7c8f5f800b27e511964a8f82604051611a179190612f65565b60405180910390a25050565b7f000000000000000000000000000000000000000000000000000000000000000081565b60607f000000000000000000000000000000000000000000000000000000000000000073ffffffffffffffffffffffffffffffffffffffff1663f208f8ce836040518263ffffffff1660e01b8152600401611aa29190612f65565b600060405180830381865afa158015611abf573d6000803e3d6000fd5b505050506040513d6000823e3d601f19601f82011682018060405250810190611ae89190613a5e565b9050919050565b611af7612394565b600073ffffffffffffffffffffffffffffffffffffffff168173ffffffffffffffffffffffffffffffffffffffff1603611b695760006040517f1e4fbdf7000000000000000000000000000000000000000000000000000000008152600401611b60919061302e565b60405180910390fd5b611b7281612605565b50565b611b7d61241b565b6000600260008481526020019081526020016000206040518060400160405290816000820154815260200160018201600980602002604051908101604052809291908260098015611c09576020028201916000905b82829054906101000a900460ff1660ff1681526020019060010190602082600001049283019260010382029150808411611bd25790505b50505050508152505090506000801b816000015103611c54576040517f8039c64e00000000000000000000000000000000000000000000000000000000815260040160405180910390fd5b600082604051602001611c679190613425565b60405160208183030381529060405280519060200120905081600001518114611cbc576040517f2892917000000000000000000000000000000000000000000000000000000000815260040160405180910390fd5b60005b6009811015611de857600060ff16848260098110611ce057611cdf613505565b5b602002015160ff1614158015611da457507f000000000000000000000000000000000000000000000000000000000000000073ffffffffffffffffffffffffffffffffffffffff16635c8ad6c7858360098110611d4057611d3f613505565b5b60200201516040518263ffffffff1660e01b8152600401611d61919061375f565b602060405180830381865afa158015611d7e573d6000803e3d6000fd5b505050506040513d601f19601f82011682018060405250810190611da29190613496565b155b15611ddb576040517fb026afda00000000000000000000000000000000000000000000000000000000815260040160405180910390fd5b8080600101915050611cbf565b5060005b6009811015611ecf57600060ff16848260098110611e0d57611e0c613505565b5b602002015160ff1614611ec2577f000000000000000000000000000000000000000000000000000000000000000073ffffffffffffffffffffffffffffffffffffffff1663f5298aca33868460098110611e6a57611e69613505565b5b602002015160016040518463ffffffff1660e01b8152600401611e8f93929190613aa7565b600060405180830381600087803b158015611ea957600080fd5b505af1158015611ebd573d6000803e3d6000fd5b505050505b8080600101915050611dec565b506000600460008681526020019081526020016000208054611ef09061372e565b90501115611f98577f000000000000000000000000000000000000000000000000000000000000000073ffffffffffffffffffffffffffffffffffffffff166333cfcb9f85600460008881526020019081526020016000206040518363ffffffff1660e01b8152600401611f65929190613b62565b600060405180830381600087803b158015611f7f57600080fd5b505af1158015611f93573d6000803e3d6000fd5b505050505b60007f000000000000000000000000000000000000000000000000000000000000000073ffffffffffffffffffffffffffffffffffffffff166340c10f1933876040518363ffffffff1660e01b8152600401611ff5929190613441565b6020604051808303816000875af1158015612014573d6000803e3d6000fd5b505050506040513d601f19601f820116820180604052508101906120389190613ba7565b905080853373ffffffffffffffffffffffffffffffffffffffff167f1e2d1ef76cc9f2bf19e7077c9dfd53ee67bf6b21cbeb591e63876f77574729c960405160405180910390a450505061208a612461565b5050565b60607f000000000000000000000000000000000000000000000000000000000000000073ffffffffffffffffffffffffffffffffffffffff1663f63eb89d6040518163ffffffff1660e01b8152600401600060405180830381865afa1580156120fb573d6000803e3d6000fd5b505050506040513d6000823e3d601f19601f820116820180604052508101906121249190613c97565b905090565b60036020528060005260406000206000915090505481565b600061214b61278e565b61215361278e565b6000805b600981101561228f57600060ff1686826009811061217857612177613505565b5b602002015160ff1614612282576000805b83811015612208578783600981106121a4576121a3613505565b5b602002015160ff168682600a81106121bf576121be613505565b5b6020020151036121fb578481600a81106121dc576121db613505565b5b6020020180518091906121ee90613563565b8152505060019150612208565b8080600101915050612189565b50801580156122175750600a83105b156122805786826009811061222f5761222e613505565b5b602002015160ff168584600a811061224a57612249613505565b5b60200201818152505060018484600a811061226857612267613505565b5b602002018181525050828061227c90613563565b9350505b505b8080600101915050612157565b5060005b81811015612385578281600a81106122ae576122ad613505565b5b60200201517f000000000000000000000000000000000000000000000000000000000000000073ffffffffffffffffffffffffffffffffffffffff1662fdd58e898785600a811061230257612301613505565b5b60200201516040518363ffffffff1660e01b8152600401612324929190613441565b602060405180830381865afa158015612341573d6000803e3d6000fd5b505050506040513d601f19601f820116820180604052508101906123659190613ba7565b101561237857600094505050505061238e565b8080600101915050612293565b50600193505050505b92915050565b61239c6126c9565b73ffffffffffffffffffffffffffffffffffffffff166123ba611326565b73ffffffffffffffffffffffffffffffffffffffff1614612419576123dd6126c9565b6040517f118cdaa7000000000000000000000000000000000000000000000000000000008152600401612410919061302e565b60405180910390fd5b565b600260015403612457576040517f3ee5aeb500000000000000000000000000000000000000000000000000000000815260040160405180910390fd5b6002600181905550565b60018081905550565b600080600260008481526020019081526020016000206001016009806020026040519081016040528092919082600980156124e0576020028201916000905b82829054906101000a900460ff1660ff16815260200190600101906020826000010492830192600103820291508084116124a95790505b505050505090506124ef6126d1565b600080600090505b600981101561256a57600084826009811061251557612514613505565b5b60200201519050600060ff168160ff161461255c578084848061253790613563565b95506009811061254a57612549613505565b5b602002019060ff16908160ff16815250505b5080806001019150506124f7565b50600081036125a5576040517f8039c64e00000000000000000000000000000000000000000000000000000000815260040160405180910390fd5b6000814233446040516020016125bd93929190613d49565b6040516020818303038152906040528051906020012060001c6125e09190613db5565b90508281600981106125f5576125f4613505565b5b6020020151945050505050919050565b60008060009054906101000a900473ffffffffffffffffffffffffffffffffffffffff169050816000806101000a81548173ffffffffffffffffffffffffffffffffffffffff021916908373ffffffffffffffffffffffffffffffffffffffff1602179055508173ffffffffffffffffffffffffffffffffffffffff168173ffffffffffffffffffffffffffffffffffffffff167f8be0079c531659141344cd1fd0a4f28419497f9722a3daafe3b4186f6b6457e060405160405180910390a35050565b600033905090565b604051806101200160405280600990602082028036833780820191505090505090565b826009601f0160209004810192821561277d5791602002820160005b8382111561274e57835183826101000a81548160ff021916908360ff1602179055509260200192600101602081600001049283019260010302612710565b801561277b5782816101000a81549060ff021916905560010160208160000104928301926001030261274e565b505b50905061278a91906127b1565b5090565b604051806101400160405280600a90602082028036833780820191505090505090565b5b808211156127ca5760008160009055506001016127b2565b5090565b6000604051905090565b600080fd5b600080fd5b6000819050919050565b6127f5816127e2565b811461280057600080fd5b50565b600081359050612812816127ec565b92915050565b600080fd5b6000601f19601f8301169050919050565b7f4e487b7100000000000000000000000000000000000000000000000000000000600052604160045260246000fd5b6128668261281d565b810181811067ffffffffffffffff821117156128855761288461282e565b5b80604052505050565b60006128986127ce565b90506128a4828261285d565b919050565b600067ffffffffffffffff8211156128c4576128c361282e565b5b602082029050919050565b600080fd5b600060ff82169050919050565b6128ea816128d4565b81146128f557600080fd5b50565b600081359050612907816128e1565b92915050565b600061292061291b846128a9565b61288e565b9050806020840283018581111561293a576129396128cf565b5b835b81811015612963578061294f88826128f8565b84526020840193505060208101905061293c565b5050509392505050565b600082601f83011261298257612981612818565b5b600961298f84828561290d565b91505092915050565b60008061014083850312156129b0576129af6127d8565b5b60006129be85828601612803565b92505060206129cf8582860161296d565b9150509250929050565b60008115159050919050565b6129ee816129d9565b82525050565b6000602082019050612a0960008301846129e5565b92915050565b612a18816128d4565b82525050565b6000602082019050612a336000830184612a0f565b92915050565b600073ffffffffffffffffffffffffffffffffffffffff82169050919050565b6000612a6482612a39565b9050919050565b612a7481612a59565b8114612a7f57600080fd5b50565b600081359050612a9181612a6b565b92915050565b60008060408385031215612aae57612aad6127d8565b5b6000612abc85828601612a82565b9250506020612acd85828601612803565b9150509250929050565b600060208284031215612aed57612aec6127d8565b5b6000612afb84828501612803565b91505092915050565b600081519050919050565b600082825260208201905092915050565b6000819050602082019050919050565b612b39816127e2565b82525050565b6000612b4b8383612b30565b60208301905092915050565b6000602082019050919050565b6000612b6f82612b04565b612b798185612b0f565b9350612b8483612b20565b8060005b83811015612bb5578151612b9c8882612b3f565b9750612ba783612b57565b925050600181019050612b88565b5085935050505092915050565b60006020820190508181036000830152612bdc8184612b64565b905092915050565b600080fd5b600067ffffffffffffffff821115612c0457612c0361282e565b5b612c0d8261281d565b9050602081019050919050565b82818337600083830152505050565b6000612c3c612c3784612be9565b61288e565b905082815260208101848484011115612c5857612c57612be4565b5b612c63848285612c1a565b509392505050565b600082601f830112612c8057612c7f612818565b5b8135612c90848260208601612c29565b91505092915050565b60008060408385031215612cb057612caf6127d8565b5b6000612cbe85828601612803565b925050602083013567ffffffffffffffff811115612cdf57612cde6127dd565b5b612ceb85828601612c6b565b9150509250929050565b6000819050919050565b6000612d1a612d15612d1084612a39565b612cf5565b612a39565b9050919050565b6000612d2c82612cff565b9050919050565b6000612d3e82612d21565b9050919050565b612d4e81612d33565b82525050565b6000602082019050612d696000830184612d45565b92915050565b6000819050919050565b612d8281612d6f565b82525050565b6000602082019050612d9d6000830184612d79565b92915050565b612dac816127e2565b82525050565b600081519050919050565b600082825260208201905092915050565b60005b83811015612dec578082015181840152602081019050612dd1565b60008484015250505050565b6000612e0382612db2565b612e0d8185612dbd565b9350612e1d818560208601612dce565b612e268161281d565b840191505092915050565b600060099050919050565b600081905092915050565b6000819050919050565b612e5a816128d4565b82525050565b6000612e6c8383612e51565b60208301905092915050565b6000602082019050919050565b612e8e81612e31565b612e988184612e3c565b9250612ea382612e47565b8060005b83811015612ed4578151612ebb8782612e60565b9650612ec683612e78565b925050600181019050612ea7565b505050505050565b600061018082019050612ef26000830187612da3565b612eff60208301866129e5565b8181036040830152612f118185612df8565b9050612f206060830184612e85565b95945050505050565b6000612f3482612d21565b9050919050565b612f4481612f29565b82525050565b6000602082019050612f5f6000830184612f3b565b92915050565b6000602082019050612f7a6000830184612da3565b92915050565b60008060006101608486031215612f9a57612f996127d8565b5b6000612fa886828701612803565b9350506020612fb98682870161296d565b92505061014084013567ffffffffffffffff811115612fdb57612fda6127dd565b5b612fe786828701612c6b565b9150509250925092565b60006101208284031215613008576130076127d8565b5b60006130168482850161296d565b91505092915050565b61302881612a59565b82525050565b6000602082019050613043600083018461301f565b92915050565b600060208201905081810360008301526130638184612df8565b905092915050565b600081519050919050565b600082825260208201905092915050565b6000819050602082019050919050565b6130a0816129d9565b82525050565b60006130b28383613097565b60208301905092915050565b6000602082019050919050565b60006130d68261306b565b6130e08185613076565b93506130eb83613087565b8060005b8381101561311c57815161310388826130a6565b975061310e836130be565b9250506001810190506130ef565b5085935050505092915050565b600081519050919050565b600082825260208201905092915050565b6000819050602082019050919050565b600082825260208201905092915050565b600061317182612db2565b61317b8185613155565b935061318b818560208601612dce565b6131948161281d565b840191505092915050565b60006131ab8383613166565b905092915050565b6000602082019050919050565b60006131cb82613129565b6131d58185613134565b9350836020820285016131e785613145565b8060005b858110156132235784840389528151613204858261319f565b945061320f836131b3565b925060208a019950506001810190506131eb565b50829750879550505050505092915050565b6000608082019050818103600083015261324f8187612b64565b905081810360208301526132638186612b64565b9050818103604083015261327781856130cb565b9050818103606083015261328b81846131c0565b905095945050505050565b6000610120820190506132ac6000830184612e85565b92915050565b600080604083850312156132c9576132c86127d8565b5b60006132d785828601612803565b92505060206132e885828601612803565b9150509250929050565b60006132fd82612d21565b9050919050565b61330d816132f2565b82525050565b60006020820190506133286000830184613304565b92915050565b600060208284031215613344576133436127d8565b5b600061335284828501612a82565b91505092915050565b6000806101408385031215613373576133726127d8565b5b600061338185828601612a82565b92505060206133928582860161296d565b9150509250929050565b600081905092915050565b6133b0816128d4565b82525050565b60006133c283836133a7565b60208301905092915050565b6133d781612e31565b6133e1818461339c565b92506133ec82612e47565b8060005b8381101561341d57815161340487826133b6565b965061340f83612e78565b9250506001810190506133f0565b505050505050565b600061343182846133ce565b6101208201915081905092915050565b6000604082019050613456600083018561301f565b6134636020830184612da3565b9392505050565b613473816129d9565b811461347e57600080fd5b50565b6000815190506134908161346a565b92915050565b6000602082840312156134ac576134ab6127d8565b5b60006134ba84828501613481565b91505092915050565b6000815190506134d281612a6b565b92915050565b6000602082840312156134ee576134ed6127d8565b5b60006134fc848285016134c3565b91505092915050565b7f4e487b7100000000000000000000000000000000000000000000000000000000600052603260045260246000fd5b7f4e487b7100000000000000000000000000000000000000000000000000000000600052601160045260246000fd5b600061356e826127e2565b91507fffffffffffffffffffffffffffffffffffffffffffffffffffffffffffffffff82036135a05761359f613534565b5b600182019050919050565b60006040820190506135c06000830185612da3565b81810360208301526135d28184612df8565b90509392505050565b60006060820190506135f0600083018661301f565b6135fd602083018561301f565b61360a6040830184612da3565b949350505050565b600061362d613628613623846128d4565b612cf5565b6127e2565b9050919050565b61363d81613612565b82525050565b6000819050919050565b600061366861366361365e84613643565b612cf5565b6127e2565b9050919050565b6136788161364d565b82525050565b600082825260208201905092915050565b50565b600061369f60008361367e565b91506136aa8261368f565b600082019050919050565b60006080820190506136ca600083018661301f565b6136d76020830185613634565b6136e4604083018461366f565b81810360608301526136f581613692565b9050949350505050565b7f4e487b7100000000000000000000000000000000000000000000000000000000600052602260045260246000fd5b6000600282049050600182168061374657607f821691505b602082108103613759576137586136ff565b5b50919050565b60006020820190506137746000830184613634565b92915050565b60008190508160005260206000209050919050565b60006020601f8301049050919050565b600082821b905092915050565b6000600883026137dc7fffffffffffffffffffffffffffffffffffffffffffffffffffffffffffffffff8261379f565b6137e6868361379f565b95508019841693508086168417925050509392505050565b600061381961381461380f846127e2565b612cf5565b6127e2565b9050919050565b6000819050919050565b613833836137fe565b61384761383f82613820565b8484546137ac565b825550505050565b600090565b61385c61384f565b61386781848461382a565b505050565b5b8181101561388b57613880600082613854565b60018101905061386d565b5050565b601f8211156138d0576138a18161377a565b6138aa8461378f565b810160208510156138b9578190505b6138cd6138c58561378f565b83018261386c565b50505b505050565b600082821c905092915050565b60006138f3600019846008026138d5565b1980831691505092915050565b600061390c83836138e2565b9150826002028217905092915050565b61392582612db2565b67ffffffffffffffff81111561393e5761393d61282e565b5b613948825461372e565b61395382828561388f565b600060209050601f8311600181146139865760008415613974578287015190505b61397e8582613900565b8655506139e6565b601f1984166139948661377a565b60005b828110156139bc57848901518255600182019150602085019450602081019050613997565b868310156139d957848901516139d5601f8916826138e2565b8355505b6001600288020188555050505b505050505050565b6000613a016139fc84612be9565b61288e565b905082815260208101848484011115613a1d57613a1c612be4565b5b613a28848285612dce565b509392505050565b600082601f830112613a4557613a44612818565b5b8151613a558482602086016139ee565b91505092915050565b600060208284031215613a7457613a736127d8565b5b600082015167ffffffffffffffff811115613a9257613a916127dd565b5b613a9e84828501613a30565b91505092915050565b6000606082019050613abc600083018661301f565b613ac96020830185613634565b613ad6604083018461366f565b949350505050565b60008154613aeb8161372e565b613af58186612dbd565b94506001821660008114613b105760018114613b2657613b59565b60ff198316865281151560200286019350613b59565b613b2f8561377a565b60005b83811015613b5157815481890152600182019150602081019050613b32565b808801955050505b50505092915050565b6000604082019050613b776000830185612da3565b8181036020830152613b898184613ade565b90509392505050565b600081519050613ba1816127ec565b92915050565b600060208284031215613bbd57613bbc6127d8565b5b6000613bcb84828501613b92565b91505092915050565b600067ffffffffffffffff821115613bef57613bee61282e565b5b602082029050602081019050919050565b6000613c13613c0e84613bd4565b61288e565b90508083825260208201905060208402830185811115613c3657613c356128cf565b5b835b81811015613c5f5780613c4b8882613b92565b845260208401935050602081019050613c38565b5050509392505050565b600082601f830112613c7e57613c7d612818565b5b8151613c8e848260208601613c00565b91505092915050565b600060208284031215613cad57613cac6127d8565b5b600082015167ffffffffffffffff811115613ccb57613cca6127dd565b5b613cd784828501613c69565b91505092915050565b6000819050919050565b613cfb613cf6826127e2565b613ce0565b82525050565b60008160601b9050919050565b6000613d1982613d01565b9050919050565b6000613d2b82613d0e565b9050919050565b613d43613d3e82612a59565b613d20565b82525050565b6000613d558286613cea565b602082019150613d658285613d32565b601482019150613d758284613cea565b602082019150819050949350505050565b7f4e487b7100000000000000000000000000000000000000000000000000000000600052601260045260246000fd5b6000613dc0826127e2565b9150613dcb836127e2565b925082613ddb57613dda613d86565b5b82820690509291505056fea264697066735822122078b2ab2e0fecb5d5e80ba1943c8adc36f247b6d8454200b92ddf3c8e8bb3bd4964736f6c634300081c0033608060405234801561001057600080fd5b503360405180602001604052806000815250610031816100b960201b60201c565b50600073ffffffffffffffffffffffffffffffffffffffff168173ffffffffffffffffffffffffffffffffffffffff16036100a45760006040517f1e4fbdf700000000000000000000000000000000000000000000000000000000815260040161009b91906101d3565b60405180910390fd5b6100b3816100cc60201b60201c565b50610510565b80600290816100c8919061043e565b5050565b6000600560009054906101000a900473ffffffffffffffffffffffffffffffffffffffff16905081600560006101000a81548173ffffffffffffffffffffffffffffffffffffffff021916908373ffffffffffffffffffffffffffffffffffffffff1602179055508173ffffffffffffffffffffffffffffffffffffffff168173ffffffffffffffffffffffffffffffffffffffff167f8be0079c531659141344cd1fd0a4f28419497f9722a3daafe3b4186f6b6457e060405160405180910390a35050565b600073ffffffffffffffffffffffffffffffffffffffff82169050919050565b60006101bd82610192565b9050919050565b6101cd816101b2565b82525050565b60006020820190506101e860008301846101c4565b92915050565b600081519050919050565b7f4e487b7100000000000000000000000000000000000000000000000000000000600052604160045260246000fd5b7f4e487b7100000000000000000000000000000000000000000000000000000000600052602260045260246000fd5b6000600282049050600182168061026f57607f821691505b60208210810361028257610281610228565b5b50919050565b60008190508160005260206000209050919050565b60006020601f8301049050919050565b600082821b905092915050565b6000600883026102ea7fffffffffffffffffffffffffffffffffffffffffffffffffffffffffffffffff826102ad565b6102f486836102ad565b95508019841693508086168417925050509392505050565b6000819050919050565b6000819050919050565b600061033b6103366103318461030c565b610316565b61030c565b9050919050565b6000819050919050565b61035583610320565b61036961036182610342565b8484546102ba565b825550505050565b600090565b61037e610371565b61038981848461034c565b505050565b5b818110156103ad576103a2600082610376565b60018101905061038f565b5050565b601f8211156103f2576103c381610288565b6103cc8461029d565b810160208510156103db578190505b6103ef6103e78561029d565b83018261038e565b50505b505050565b600082821c905092915050565b6000610415600019846008026103f7565b1980831691505092915050565b600061042e8383610404565b9150826002028217905092915050565b610447826101ee565b67ffffffffffffffff8111156104605761045f6101f9565b5b61046a8254610257565b6104758282856103b1565b600060209050601f8311600181146104a85760008415610496578287015190505b6104a08582610422565b865550610508565b601f1984166104b686610288565b60005b828110156104de578489015182556001820191506020850194506020810190506104b9565b868310156104fb57848901516104f7601f891682610404565b8355505b6001600288020188555050505b505050505050565b6136c18061051f6000396000f3fe608060405234801561001057600080fd5b506004361061018d5760003560e01c8063731133e9116100de578063d02ef86311610097578063f242432a11610071578063f242432a146104ca578063f2fde38b146104e6578063f5298aca14610502578063f63eb89d1461051e5761018d565b8063d02ef8631461043a578063e985e9c51461046a578063f208f8ce1461049a5761018d565b8063731133e9146103665780638da5cb5b14610382578063a22cb465146103a0578063bd85b039146103bc578063c54de01b146103ec578063cb65c9191461040a5761018d565b806341d0f6411161014b5780634f558e79116101255780634f558e79146102e05780635c8ad6c7146103105780636b20c45414610340578063715018a61461035c5761018d565b806341d0f64114610278578063447bf3a2146102945780634e1273f4146102b05761018d565b8062fdd58e1461019257806301ffc9a7146101c25780630e89341c146101f257806318160ddd146102225780631f7fdffa146102405780632eb2c2d61461025c575b600080fd5b6101ac60048036038101906101a7919061247c565b61053c565b6040516101b991906124cb565b60405180910390f35b6101dc60048036038101906101d7919061253e565b610596565b6040516101e99190612586565b60405180910390f35b61020c600480360381019061020791906125a1565b610678565b604051610219919061265e565b60405180910390f35b61022a61070c565b60405161023791906124cb565b60405180910390f35b61025a6004803603810190610255919061287d565b610716565b005b61027660048036038101906102719190612938565b6107bb565b005b610292600480360381019061028d9190612aa8565b610863565b005b6102ae60048036038101906102a991906125a1565b61095e565b005b6102ca60048036038101906102c59190612bc7565b610a84565b6040516102d79190612cfd565b60405180910390f35b6102fa60048036038101906102f591906125a1565b610b8d565b6040516103079190612586565b60405180910390f35b61032a600480360381019061032591906125a1565b610ba1565b6040516103379190612586565b60405180910390f35b61035a60048036038101906103559190612d1f565b610bcb565b005b610364610be3565b005b610380600480360381019061037b9190612daa565b610bf7565b005b61038a610c68565b6040516103979190612e3c565b60405180910390f35b6103ba60048036038101906103b59190612e83565b610c92565b005b6103d660048036038101906103d191906125a1565b610ca8565b6040516103e391906124cb565b60405180910390f35b6103f4610cc5565b60405161040191906124cb565b60405180910390f35b610424600480360381019061041f91906125a1565b610ccb565b604051610431919061265e565b60405180910390f35b610454600480360381019061044f91906125a1565b610d6b565b6040516104619190612586565b60405180910390f35b610484600480360381019061047f9190612ec3565b610d8b565b6040516104919190612586565b60405180910390f35b6104b460048036038101906104af91906125a1565b610e1f565b6040516104c1919061265e565b60405180910390f35b6104e460048036038101906104df9190612f03565b610f1b565b005b61050060048036038101906104fb9190612f9a565b610fc3565b005b61051c60048036038101906105179190612fc7565b611049565b005b6105266110b8565b6040516105339190612cfd565b60405180910390f35b600080600083815260200190815260200160002060008473ffffffffffffffffffffffffffffffffffffffff1673ffffffffffffffffffffffffffffffffffffffff16815260200190815260200160002054905092915050565b60007fd9b67a26000000000000000000000000000000000000000000000000000000007bffffffffffffffffffffffffffffffffffffffffffffffffffffffff1916827bffffffffffffffffffffffffffffffffffffffffffffffffffffffff1916148061066157507f0e89341c000000000000000000000000000000000000000000000000000000007bffffffffffffffffffffffffffffffffffffffffffffffffffffffff1916827bffffffffffffffffffffffffffffffffffffffffffffffffffffffff1916145b80610671575061067082611234565b5b9050919050565b60606002805461068790613049565b80601f01602080910402602001604051908101604052809291908181526020018280546106b390613049565b80156107005780601f106106d557610100808354040283529160200191610700565b820191906000526020600020905b8154815290600101906020018083116106e357829003601f168201915b50505050509050919050565b6000600454905090565b61071e61129e565b60005b83518110156107a857600660008583815181106107415761074061307a565b5b6020026020010151815260200190815260200160002060009054906101000a900460ff1661079b576040517fb026afda00000000000000000000000000000000000000000000000000000000815260040160405180910390fd5b8080600101915050610721565b506107b584848484611325565b50505050565b60006107c56113ab565b90508073ffffffffffffffffffffffffffffffffffffffff168673ffffffffffffffffffffffffffffffffffffffff161415801561080a57506108088682610d8b565b155b1561084e5780866040517fe237d9220000000000000000000000000000000000000000000000000000000081526004016108459291906130a9565b60405180910390fd5b61085b86868686866113b3565b505050505050565b61086b61129e565b6006600083815260200190815260200160002060009054906101000a900460ff16156108c3576040517f7de6844700000000000000000000000000000000000000000000000000000000815260040160405180910390fd5b60016006600084815260200190815260200160002060006101000a81548160ff0219169083151502179055508060076000848152602001908152602001600020908161090f919061327e565b5060085482111561092257816008819055505b817fab14cf47dafc6e6f5ad512b59307f5ecb35da8c8806f4259b2c46bedb3a79b0182604051610952919061265e565b60405180910390a25050565b61096661129e565b6006600082815260200190815260200160002060009054906101000a900460ff166109bd576040517ffca0aa6a00000000000000000000000000000000000000000000000000000000815260040160405180910390fd5b60006109c882610ca8565b1115610a09576040517f08c379a0000000000000000000000000000000000000000000000000000000008152600401610a00906133c2565b60405180910390fd5b60006006600083815260200190815260200160002060006101000a81548160ff021916908315150217905550600760008281526020019081526020016000206000610a549190612377565b807f649feb93d2489e5f18d5b966af0e2e1a8bb86425417906a0a3ce2b9b4a2d5d2360405160405180910390a250565b60608151835114610ad057815183516040517f5b059991000000000000000000000000000000000000000000000000000000008152600401610ac79291906133e2565b60405180910390fd5b6000835167ffffffffffffffff811115610aed57610aec612685565b5b604051908082528060200260200182016040528015610b1b5781602001602082028036833780820191505090505b50905060005b8451811015610b8257610b58610b4082876114ab90919063ffffffff16565b610b5383876114bf90919063ffffffff16565b61053c565b828281518110610b6b57610b6a61307a565b5b602002602001018181525050806001019050610b21565b508091505092915050565b600080610b9983610ca8565b119050919050565b60006006600083815260200190815260200160002060009054906101000a900460ff169050919050565b610bd361129e565b610bde8383836114d3565b505050565b610beb61129e565b610bf56000611567565b565b610bff61129e565b6006600084815260200190815260200160002060009054906101000a900460ff16610c56576040517fb026afda00000000000000000000000000000000000000000000000000000000815260040160405180910390fd5b610c628484848461162d565b50505050565b6000600560009054906101000a900473ffffffffffffffffffffffffffffffffffffffff16905090565b610ca4610c9d6113ab565b83836116c6565b5050565b600060036000838152602001908152602001600020549050919050565b60085481565b60076020528060005260406000206000915090508054610cea90613049565b80601f0160208091040260200160405190810160405280929190818152602001828054610d1690613049565b8015610d635780601f10610d3857610100808354040283529160200191610d63565b820191906000526020600020905b815481529060010190602001808311610d4657829003601f168201915b505050505081565b60066020528060005260406000206000915054906101000a900460ff1681565b6000600160008473ffffffffffffffffffffffffffffffffffffffff1673ffffffffffffffffffffffffffffffffffffffff16815260200190815260200160002060008373ffffffffffffffffffffffffffffffffffffffff1673ffffffffffffffffffffffffffffffffffffffff16815260200190815260200160002060009054906101000a900460ff16905092915050565b60606006600083815260200190815260200160002060009054906101000a900460ff16610e78576040517ffca0aa6a00000000000000000000000000000000000000000000000000000000815260040160405180910390fd5b600760008381526020019081526020016000208054610e9690613049565b80601f0160208091040260200160405190810160405280929190818152602001828054610ec290613049565b8015610f0f5780601f10610ee457610100808354040283529160200191610f0f565b820191906000526020600020905b815481529060010190602001808311610ef257829003601f168201915b50505050509050919050565b6000610f256113ab565b90508073ffffffffffffffffffffffffffffffffffffffff168673ffffffffffffffffffffffffffffffffffffffff1614158015610f6a5750610f688682610d8b565b155b15610fae5780866040517fe237d922000000000000000000000000000000000000000000000000000000008152600401610fa59291906130a9565b60405180910390fd5b610fbb8686868686611836565b505050505050565b610fcb61129e565b600073ffffffffffffffffffffffffffffffffffffffff168173ffffffffffffffffffffffffffffffffffffffff160361103d5760006040517f1e4fbdf70000000000000000000000000000000000000000000000000000000081526004016110349190612e3c565b60405180910390fd5b61104681611567565b50565b61105161129e565b6006600083815260200190815260200160002060009054906101000a900460ff166110a8576040517fb026afda00000000000000000000000000000000000000000000000000000000815260040160405180910390fd5b6110b3838383611941565b505050565b6060600060016008546110cb919061343a565b67ffffffffffffffff8111156110e4576110e3612685565b5b6040519080825280602002602001820160405280156111125781602001602082028036833780820191505090505b5090506000805b600854811161118a576006600082815260200190815260200160002060009054906101000a900460ff1615611177578083838151811061115c5761115b61307a565b5b60200260200101818152505081806111739061346e565b9250505b80806111829061346e565b915050611119565b5060008167ffffffffffffffff8111156111a7576111a6612685565b5b6040519080825280602002602001820160405280156111d55781602001602082028036833780820191505090505b50905060005b8281101561122a578381815181106111f6576111f561307a565b5b60200260200101518282815181106112115761121061307a565b5b60200260200101818152505080806001019150506111db565b5080935050505090565b60007f01ffc9a7000000000000000000000000000000000000000000000000000000007bffffffffffffffffffffffffffffffffffffffffffffffffffffffff1916827bffffffffffffffffffffffffffffffffffffffffffffffffffffffff1916149050919050565b6112a66113ab565b73ffffffffffffffffffffffffffffffffffffffff166112c4610c68565b73ffffffffffffffffffffffffffffffffffffffff1614611323576112e76113ab565b6040517f118cdaa700000000000000000000000000000000000000000000000000000000815260040161131a9190612e3c565b60405180910390fd5b565b600073ffffffffffffffffffffffffffffffffffffffff168473ffffffffffffffffffffffffffffffffffffffff16036113975760006040517f57f447ce00000000000000000000000000000000000000000000000000000000815260040161138e9190612e3c565b60405180910390fd5b6113a56000858585856119e8565b50505050565b600033905090565b600073ffffffffffffffffffffffffffffffffffffffff168473ffffffffffffffffffffffffffffffffffffffff16036114255760006040517f57f447ce00000000000000000000000000000000000000000000000000000000815260040161141c9190612e3c565b60405180910390fd5b600073ffffffffffffffffffffffffffffffffffffffff168573ffffffffffffffffffffffffffffffffffffffff16036114975760006040517f01a8351400000000000000000000000000000000000000000000000000000000815260040161148e9190612e3c565b60405180910390fd5b6114a485858585856119e8565b5050505050565b600060208202602084010151905092915050565b600060208202602084010151905092915050565b600073ffffffffffffffffffffffffffffffffffffffff168373ffffffffffffffffffffffffffffffffffffffff16036115455760006040517f01a8351400000000000000000000000000000000000000000000000000000000815260040161153c9190612e3c565b60405180910390fd5b6115628360008484604051806020016040528060008152506119e8565b505050565b6000600560009054906101000a900473ffffffffffffffffffffffffffffffffffffffff16905081600560006101000a81548173ffffffffffffffffffffffffffffffffffffffff021916908373ffffffffffffffffffffffffffffffffffffffff1602179055508173ffffffffffffffffffffffffffffffffffffffff168173ffffffffffffffffffffffffffffffffffffffff167f8be0079c531659141344cd1fd0a4f28419497f9722a3daafe3b4186f6b6457e060405160405180910390a35050565b600073ffffffffffffffffffffffffffffffffffffffff168473ffffffffffffffffffffffffffffffffffffffff160361169f5760006040517f57f447ce0000000000000000000000000000000000000000000000000000000081526004016116969190612e3c565b60405180910390fd5b6000806116ac8585611a9a565b915091506116be6000878484876119e8565b505050505050565b600073ffffffffffffffffffffffffffffffffffffffff168273ffffffffffffffffffffffffffffffffffffffff16036117385760006040517fced3e10000000000000000000000000000000000000000000000000000000000815260040161172f9190612e3c565b60405180910390fd5b80600160008573ffffffffffffffffffffffffffffffffffffffff1673ffffffffffffffffffffffffffffffffffffffff16815260200190815260200160002060008473ffffffffffffffffffffffffffffffffffffffff1673ffffffffffffffffffffffffffffffffffffffff16815260200190815260200160002060006101000a81548160ff0219169083151502179055508173ffffffffffffffffffffffffffffffffffffffff168373ffffffffffffffffffffffffffffffffffffffff167f17307eab39ab6107e8899845ad3d59bd9653f200f220920489ca2b5937696c31836040516118299190612586565b60405180910390a3505050565b600073ffffffffffffffffffffffffffffffffffffffff168473ffffffffffffffffffffffffffffffffffffffff16036118a85760006040517f57f447ce00000000000000000000000000000000000000000000000000000000815260040161189f9190612e3c565b60405180910390fd5b600073ffffffffffffffffffffffffffffffffffffffff168573ffffffffffffffffffffffffffffffffffffffff160361191a5760006040517f01a835140000000000000000000000000000000000000000000000000000000081526004016119119190612e3c565b60405180910390fd5b6000806119278585611a9a565b9150915061193887878484876119e8565b50505050505050565b600073ffffffffffffffffffffffffffffffffffffffff168373ffffffffffffffffffffffffffffffffffffffff16036119b35760006040517f01a835140000000000000000000000000000000000000000000000000000000081526004016119aa9190612e3c565b60405180910390fd5b6000806119c08484611a9a565b915091506119e18560008484604051806020016040528060008152506119e8565b5050505050565b6119f485858585611aca565b600073ffffffffffffffffffffffffffffffffffffffff168473ffffffffffffffffffffffffffffffffffffffff1614611a93576000611a326113ab565b90506001845103611a82576000611a536000866114bf90919063ffffffff16565b90506000611a6b6000866114bf90919063ffffffff16565b9050611a7b838989858589611adc565b5050611a91565b611a90818787878787611c90565b5b505b5050505050565b60608060405191506001825283602083015260408201905060018152826020820152604081016040529250929050565b611ad684848484611e44565b50505050565b60008473ffffffffffffffffffffffffffffffffffffffff163b1115611c88578373ffffffffffffffffffffffffffffffffffffffff1663f23a6e6187878686866040518663ffffffff1660e01b8152600401611b3d95949392919061350b565b6020604051808303816000875af1925050508015611b7957506040513d601f19601f82011682018060405250810190611b76919061357a565b60015b611bfd573d8060008114611ba9576040519150601f19603f3d011682016040523d82523d6000602084013e611bae565b606091505b506000815103611bf557846040517f57f447ce000000000000000000000000000000000000000000000000000000008152600401611bec9190612e3c565b60405180910390fd5b805181602001fd5b63f23a6e6160e01b7bffffffffffffffffffffffffffffffffffffffffffffffffffffffff1916817bffffffffffffffffffffffffffffffffffffffffffffffffffffffff191614611c8657846040517f57f447ce000000000000000000000000000000000000000000000000000000008152600401611c7d9190612e3c565b60405180910390fd5b505b505050505050565b60008473ffffffffffffffffffffffffffffffffffffffff163b1115611e3c578373ffffffffffffffffffffffffffffffffffffffff1663bc197c8187878686866040518663ffffffff1660e01b8152600401611cf19594939291906135a7565b6020604051808303816000875af1925050508015611d2d57506040513d601f19601f82011682018060405250810190611d2a919061357a565b60015b611db1573d8060008114611d5d576040519150601f19603f3d011682016040523d82523d6000602084013e611d62565b606091505b506000815103611da957846040517f57f447ce000000000000000000000000000000000000000000000000000000008152600401611da09190612e3c565b60405180910390fd5b805181602001fd5b63bc197c8160e01b7bffffffffffffffffffffffffffffffffffffffffffffffffffffffff1916817bffffffffffffffffffffffffffffffffffffffffffffffffffffffff191614611e3a57846040517f57f447ce000000000000000000000000000000000000000000000000000000008152600401611e319190612e3c565b60405180910390fd5b505b505050505050565b611e5084848484611fcf565b600073ffffffffffffffffffffffffffffffffffffffff168473ffffffffffffffffffffffffffffffffffffffff1603611f1a576000805b8351811015611efe576000611ea682856114bf90919063ffffffff16565b90508060036000611ec085896114bf90919063ffffffff16565b81526020019081526020016000206000828254611edd919061343a565b925050819055508083611ef0919061343a565b925050806001019050611e88565b508060046000828254611f11919061343a565b92505081905550505b600073ffffffffffffffffffffffffffffffffffffffff168373ffffffffffffffffffffffffffffffffffffffff1603611fc9576000805b8351811015611fb6576000611f7082856114bf90919063ffffffff16565b90508060036000611f8a85896114bf90919063ffffffff16565b815260200190815260200160002060008282540392505081905550808301925050806001019050611f52565b5080600460008282540392505081905550505b50505050565b805182511461201957815181516040517f5b0599910000000000000000000000000000000000000000000000000000000081526004016120109291906133e2565b60405180910390fd5b60006120236113ab565b905060005b835181101561223257600061204682866114bf90919063ffffffff16565b9050600061205d83866114bf90919063ffffffff16565b9050600073ffffffffffffffffffffffffffffffffffffffff168873ffffffffffffffffffffffffffffffffffffffff161461218a57600080600084815260200190815260200160002060008a73ffffffffffffffffffffffffffffffffffffffff1673ffffffffffffffffffffffffffffffffffffffff1681526020019081526020016000205490508181101561213257888183856040517f03dee4c5000000000000000000000000000000000000000000000000000000008152600401612129949392919061360f565b60405180910390fd5b81810360008085815260200190815260200160002060008b73ffffffffffffffffffffffffffffffffffffffff1673ffffffffffffffffffffffffffffffffffffffff16815260200190815260200160002081905550505b600073ffffffffffffffffffffffffffffffffffffffff168773ffffffffffffffffffffffffffffffffffffffff1614612225578060008084815260200190815260200160002060008973ffffffffffffffffffffffffffffffffffffffff1673ffffffffffffffffffffffffffffffffffffffff168152602001908152602001600020600082825461221d919061343a565b925050819055505b5050806001019050612028565b5060018351036122f15760006122526000856114bf90919063ffffffff16565b9050600061226a6000856114bf90919063ffffffff16565b90508573ffffffffffffffffffffffffffffffffffffffff168773ffffffffffffffffffffffffffffffffffffffff168473ffffffffffffffffffffffffffffffffffffffff167fc3d58168c5ae7397731d063d5bbf3d657854427343f4c083240f7aacaa2d0f6285856040516122e29291906133e2565b60405180910390a45050612370565b8373ffffffffffffffffffffffffffffffffffffffff168573ffffffffffffffffffffffffffffffffffffffff168273ffffffffffffffffffffffffffffffffffffffff167f4a39dc06d4c0dbc64b70af90fd698a233a518aa5d07e595d983b8c0526c8f7fb8686604051612367929190613654565b60405180910390a45b5050505050565b50805461238390613049565b6000825580601f1061239557506123b4565b601f0160209004906000526020600020908101906123b391906123b7565b5b50565b5b808211156123d05760008160009055506001016123b8565b5090565b6000604051905090565b600080fd5b600080fd5b600073ffffffffffffffffffffffffffffffffffffffff82169050919050565b6000612413826123e8565b9050919050565b61242381612408565b811461242e57600080fd5b50565b6000813590506124408161241a565b92915050565b6000819050919050565b61245981612446565b811461246457600080fd5b50565b60008135905061247681612450565b92915050565b60008060408385031215612493576124926123de565b5b60006124a185828601612431565b92505060206124b285828601612467565b9150509250929050565b6124c581612446565b82525050565b60006020820190506124e060008301846124bc565b92915050565b60007fffffffff0000000000000000000000000000000000000000000000000000000082169050919050565b61251b816124e6565b811461252657600080fd5b50565b60008135905061253881612512565b92915050565b600060208284031215612554576125536123de565b5b600061256284828501612529565b91505092915050565b60008115159050919050565b6125808161256b565b82525050565b600060208201905061259b6000830184612577565b92915050565b6000602082840312156125b7576125b66123de565b5b60006125c584828501612467565b91505092915050565b600081519050919050565b600082825260208201905092915050565b60005b838110156126085780820151818401526020810190506125ed565b60008484015250505050565b6000601f19601f8301169050919050565b6000612630826125ce565b61263a81856125d9565b935061264a8185602086016125ea565b61265381612614565b840191505092915050565b600060208201905081810360008301526126788184612625565b905092915050565b600080fd5b7f4e487b7100000000000000000000000000000000000000000000000000000000600052604160045260246000fd5b6126bd82612614565b810181811067ffffffffffffffff821117156126dc576126db612685565b5b80604052505050565b60006126ef6123d4565b90506126fb82826126b4565b919050565b600067ffffffffffffffff82111561271b5761271a612685565b5b602082029050602081019050919050565b600080fd5b600061274461273f84612700565b6126e5565b905080838252602082019050602084028301858111156127675761276661272c565b5b835b81811015612790578061277c8882612467565b845260208401935050602081019050612769565b5050509392505050565b600082601f8301126127af576127ae612680565b5b81356127bf848260208601612731565b91505092915050565b600080fd5b600067ffffffffffffffff8211156127e8576127e7612685565b5b6127f182612614565b9050602081019050919050565b82818337600083830152505050565b600061282061281b846127cd565b6126e5565b90508281526020810184848401111561283c5761283b6127c8565b5b6128478482856127fe565b509392505050565b600082601f83011261286457612863612680565b5b813561287484826020860161280d565b91505092915050565b60008060008060808587031215612897576128966123de565b5b60006128a587828801612431565b945050602085013567ffffffffffffffff8111156128c6576128c56123e3565b5b6128d28782880161279a565b935050604085013567ffffffffffffffff8111156128f3576128f26123e3565b5b6128ff8782880161279a565b925050606085013567ffffffffffffffff8111156129205761291f6123e3565b5b61292c8782880161284f565b91505092959194509250565b600080600080600060a08688031215612954576129536123de565b5b600061296288828901612431565b955050602061297388828901612431565b945050604086013567ffffffffffffffff811115612994576129936123e3565b5b6129a08882890161279a565b935050606086013567ffffffffffffffff8111156129c1576129c06123e3565b5b6129cd8882890161279a565b925050608086013567ffffffffffffffff8111156129ee576129ed6123e3565b5b6129fa8882890161284f565b9150509295509295909350565b600067ffffffffffffffff821115612a2257612a21612685565b5b612a2b82612614565b9050602081019050919050565b6000612a4b612a4684612a07565b6126e5565b905082815260208101848484011115612a6757612a666127c8565b5b612a728482856127fe565b509392505050565b600082601f830112612a8f57612a8e612680565b5b8135612a9f848260208601612a38565b91505092915050565b60008060408385031215612abf57612abe6123de565b5b6000612acd85828601612467565b925050602083013567ffffffffffffffff811115612aee57612aed6123e3565b5b612afa85828601612a7a565b9150509250929050565b600067ffffffffffffffff821115612b1f57612b1e612685565b5b602082029050602081019050919050565b6000612b43612b3e84612b04565b6126e5565b90508083825260208201905060208402830185811115612b6657612b6561272c565b5b835b81811015612b8f5780612b7b8882612431565b845260208401935050602081019050612b68565b5050509392505050565b600082601f830112612bae57612bad612680565b5b8135612bbe848260208601612b30565b91505092915050565b60008060408385031215612bde57612bdd6123de565b5b600083013567ffffffffffffffff811115612bfc57612bfb6123e3565b5b612c0885828601612b99565b925050602083013567ffffffffffffffff811115612c2957612c286123e3565b5b612c358582860161279a565b9150509250929050565b600081519050919050565b600082825260208201905092915050565b6000819050602082019050919050565b612c7481612446565b82525050565b6000612c868383612c6b565b60208301905092915050565b6000602082019050919050565b6000612caa82612c3f565b612cb48185612c4a565b9350612cbf83612c5b565b8060005b83811015612cf0578151612cd78882612c7a565b9750612ce283612c92565b925050600181019050612cc3565b5085935050505092915050565b60006020820190508181036000830152612d178184612c9f565b905092915050565b600080600060608486031215612d3857612d376123de565b5b6000612d4686828701612431565b935050602084013567ffffffffffffffff811115612d6757612d666123e3565b5b612d738682870161279a565b925050604084013567ffffffffffffffff811115612d9457612d936123e3565b5b612da08682870161279a565b9150509250925092565b60008060008060808587031215612dc457612dc36123de565b5b6000612dd287828801612431565b9450506020612de387828801612467565b9350506040612df487828801612467565b925050606085013567ffffffffffffffff811115612e1557612e146123e3565b5b612e218782880161284f565b91505092959194509250565b612e3681612408565b82525050565b6000602082019050612e516000830184612e2d565b92915050565b612e608161256b565b8114612e6b57600080fd5b50565b600081359050612e7d81612e57565b92915050565b60008060408385031215612e9a57612e996123de565b5b6000612ea885828601612431565b9250506020612eb985828601612e6e565b9150509250929050565b60008060408385031215612eda57612ed96123de565b5b6000612ee885828601612431565b9250506020612ef985828601612431565b9150509250929050565b600080600080600060a08688031215612f1f57612f1e6123de565b5b6000612f2d88828901612431565b9550506020612f3e88828901612431565b9450506040612f4f88828901612467565b9350506060612f6088828901612467565b925050608086013567ffffffffffffffff811115612f8157612f806123e3565b5b612f8d8882890161284f565b9150509295509295909350565b600060208284031215612fb057612faf6123de565b5b6000612fbe84828501612431565b91505092915050565b600080600060608486031215612fe057612fdf6123de565b5b6000612fee86828701612431565b9350506020612fff86828701612467565b925050604061301086828701612467565b9150509250925092565b7f4e487b7100000000000000000000000000000000000000000000000000000000600052602260045260246000fd5b6000600282049050600182168061306157607f821691505b6020821081036130745761307361301a565b5b50919050565b7f4e487b7100000000000000000000000000000000000000000000000000000000600052603260045260246000fd5b60006040820190506130be6000830185612e2d565b6130cb6020830184612e2d565b9392505050565b60008190508160005260206000209050919050565b60006020601f8301049050919050565b600082821b905092915050565b6000600883026131347fffffffffffffffffffffffffffffffffffffffffffffffffffffffffffffffff826130f7565b61313e86836130f7565b95508019841693508086168417925050509392505050565b6000819050919050565b600061317b61317661317184612446565b613156565b612446565b9050919050565b6000819050919050565b61319583613160565b6131a96131a182613182565b848454613104565b825550505050565b600090565b6131be6131b1565b6131c981848461318c565b505050565b5b818110156131ed576131e26000826131b6565b6001810190506131cf565b5050565b601f82111561323257613203816130d2565b61320c846130e7565b8101602085101561321b578190505b61322f613227856130e7565b8301826131ce565b50505b505050565b600082821c905092915050565b600061325560001984600802613237565b1980831691505092915050565b600061326e8383613244565b9150826002028217905092915050565b613287826125ce565b67ffffffffffffffff8111156132a05761329f612685565b5b6132aa8254613049565b6132b58282856131f1565b600060209050601f8311600181146132e857600084156132d6578287015190505b6132e08582613262565b865550613348565b601f1984166132f6866130d2565b60005b8281101561331e578489015182556001820191506020850194506020810190506132f9565b8683101561333b5784890151613337601f891682613244565b8355505b6001600288020188555050505b505050505050565b7f43616e6e6f742072656d6f766520696e6772656469656e74207769746820657860008201527f697374696e6720737570706c7900000000000000000000000000000000000000602082015250565b60006133ac602d836125d9565b91506133b782613350565b604082019050919050565b600060208201905081810360008301526133db8161339f565b9050919050565b60006040820190506133f760008301856124bc565b61340460208301846124bc565b9392505050565b7f4e487b7100000000000000000000000000000000000000000000000000000000600052601160045260246000fd5b600061344582612446565b915061345083612446565b92508282019050808211156134685761346761340b565b5b92915050565b600061347982612446565b91507fffffffffffffffffffffffffffffffffffffffffffffffffffffffffffffffff82036134ab576134aa61340b565b5b600182019050919050565b600081519050919050565b600082825260208201905092915050565b60006134dd826134b6565b6134e781856134c1565b93506134f78185602086016125ea565b61350081612614565b840191505092915050565b600060a0820190506135206000830188612e2d565b61352d6020830187612e2d565b61353a60408301866124bc565b61354760608301856124bc565b818103608083015261355981846134d2565b90509695505050505050565b60008151905061357481612512565b92915050565b6000602082840312156135905761358f6123de565b5b600061359e84828501613565565b91505092915050565b600060a0820190506135bc6000830188612e2d565b6135c96020830187612e2d565b81810360408301526135db8186612c9f565b905081810360608301526135ef8185612c9f565b9050818103608083015261360381846134d2565b90509695505050505050565b60006080820190506136246000830187612e2d565b61363160208301866124bc565b61363e60408301856124bc565b61364b60608301846124bc565b95945050505050565b6000604082019050818103600083015261366e8185612c9f565b905081810360208301526136828184612c9f565b9050939250505056fea26469706673582212209f7c9c94f2c98965a9bbca9465d8a618cd554eba32a4dd1c207012142613387264736f6c634300081c0033608060405234801561001057600080fd5b50336040518060400160405280600981526020017f436f666665654e465400000000000000000000000000000000000000000000008152506040518060400160405280600681526020017f434f464645450000000000000000000000000000000000000000000000000000815250816000908161008d9190610445565b50806001908161009d9190610445565b505050600073ffffffffffffffffffffffffffffffffffffffff168173ffffffffffffffffffffffffffffffffffffffff16036101125760006040517f1e4fbdf70000000000000000000000000000000000000000000000000000000081526004016101099190610558565b60405180910390fd5b6101218161012f60201b60201c565b506001600881905550610573565b6000600760009054906101000a900473ffffffffffffffffffffffffffffffffffffffff16905081600760006101000a81548173ffffffffffffffffffffffffffffffffffffffff021916908373ffffffffffffffffffffffffffffffffffffffff1602179055508173ffffffffffffffffffffffffffffffffffffffff168173ffffffffffffffffffffffffffffffffffffffff167f8be0079c531659141344cd1fd0a4f28419497f9722a3daafe3b4186f6b6457e060405160405180910390a35050565b600081519050919050565b7f4e487b7100000000000000000000000000000000000000000000000000000000600052604160045260246000fd5b7f4e487b7100000000000000000000000000000000000000000000000000000000600052602260045260246000fd5b6000600282049050600182168061027657607f821691505b6020821081036102895761028861022f565b5b50919050565b60008190508160005260206000209050919050565b60006020601f8301049050919050565b600082821b905092915050565b6000600883026102f17fffffffffffffffffffffffffffffffffffffffffffffffffffffffffffffffff826102b4565b6102fb86836102b4565b95508019841693508086168417925050509392505050565b6000819050919050565b6000819050919050565b600061034261033d61033884610313565b61031d565b610313565b9050919050565b6000819050919050565b61035c83610327565b61037061036882610349565b8484546102c1565b825550505050565b600090565b610385610378565b610390818484610353565b505050565b5b818110156103b4576103a960008261037d565b600181019050610396565b5050565b601f8211156103f9576103ca8161028f565b6103d3846102a4565b810160208510156103e2578190505b6103f66103ee856102a4565b830182610395565b50505b505050565b600082821c905092915050565b600061041c600019846008026103fe565b1980831691505092915050565b6000610435838361040b565b9150826002028217905092915050565b61044e826101f5565b67ffffffffffffffff81111561046757610466610200565b5b610471825461025e565b61047c8282856103b8565b600060209050601f8311600181146104af576000841561049d578287015190505b6104a78582610429565b86555061050f565b601f1984166104bd8661028f565b60005b828110156104e5578489015182556001820191506020850194506020810190506104c0565b8683101561050257848901516104fe601f89168261040b565b8355505b6001600288020188555050505b505050505050565b600073ffffffffffffffffffffffffffffffffffffffff82169050919050565b600061054282610517565b9050919050565b61055281610537565b82525050565b600060208201905061056d6000830184610549565b92915050565b612d80806105826000396000f3fe608060405234801561001057600080fd5b506004361061014d5760003560e01c80636352211e116100c3578063a22cb4651161007c578063a22cb465146103c2578063aafe32ef146103de578063b88d4fde1461040e578063c87b56dd1461042a578063e985e9c51461045a578063f2fde38b1461048a5761014d565b80636352211e146102ec57806370a082311461031c578063715018a61461034c5780638da5cb5b14610356578063915642061461037457806395d89b41146103a45761014d565b806323b872dd1161011557806323b872dd1461021c57806333cfcb9f1461023857806338e16dec1461025457806340c10f191461028457806342842e0e146102b457806342966c68146102d05761014d565b806301ffc9a71461015257806306fdde0314610182578063081812fc146101a0578063095ea7b3146101d05780630e511bde146101ec575b600080fd5b61016c600480360381019061016791906120df565b6104a6565b6040516101799190612127565b60405180910390f35b61018a6104b8565b60405161019791906121d2565b60405180910390f35b6101ba60048036038101906101b5919061222a565b61054a565b6040516101c79190612298565b60405180910390f35b6101ea60048036038101906101e591906122df565b610566565b005b6102066004803603810190610201919061222a565b61057c565b604051610213919061232e565b60405180910390f35b61023660048036038101906102319190612349565b610594565b005b610252600480360381019061024d91906124d1565b610696565b005b61026e6004803603810190610269919061222a565b6106c3565b60405161027b919061232e565b60405180910390f35b61029e600480360381019061029991906122df565b61074d565b6040516102ab919061232e565b60405180910390f35b6102ce60048036038101906102c99190612349565b6108b9565b005b6102ea60048036038101906102e5919061222a565b6108d9565b005b6103066004803603810190610301919061222a565b6108ed565b6040516103139190612298565b60405180910390f35b6103366004803603810190610331919061252d565b6108ff565b604051610343919061232e565b60405180910390f35b6103546109b9565b005b61035e6109cd565b60405161036b9190612298565b60405180910390f35b61038e6004803603810190610389919061222a565b6109f7565b60405161039b91906121d2565b60405180910390f35b6103ac610a97565b6040516103b991906121d2565b60405180910390f35b6103dc60048036038101906103d79190612586565b610b29565b005b6103f860048036038101906103f3919061222a565b610b3f565b604051610405919061232e565b60405180910390f35b61042860048036038101906104239190612667565b610b57565b005b610444600480360381019061043f919061222a565b610b7c565b60405161045191906121d2565b60405180910390f35b610474600480360381019061046f91906126ea565b610b8e565b6040516104819190612127565b60405180910390f35b6104a4600480360381019061049f919061252d565b610c22565b005b60006104b182610ca8565b9050919050565b6060600080546104c790612759565b80601f01602080910402602001604051908101604052809291908181526020018280546104f390612759565b80156105405780601f1061051557610100808354040283529160200191610540565b820191906000526020600020905b81548152906001019060200180831161052357829003601f168201915b5050505050905090565b600061055582610d09565b5061055f82610d91565b9050919050565b6105788282610573610dce565b610dd6565b5050565b600a6020528060005260406000206000915090505481565b600073ffffffffffffffffffffffffffffffffffffffff168273ffffffffffffffffffffffffffffffffffffffff16036106065760006040517f64a0ae920000000000000000000000000000000000000000000000000000000081526004016105fd9190612298565b60405180910390fd5b600061061a8383610615610dce565b610de8565b90508373ffffffffffffffffffffffffffffffffffffffff168173ffffffffffffffffffffffffffffffffffffffff1614610690578382826040517f64283d7b0000000000000000000000000000000000000000000000000000000081526004016106879392919061278a565b60405180910390fd5b50505050565b61069e611002565b806009600084815260200190815260200160002090816106be919061296d565b505050565b60008073ffffffffffffffffffffffffffffffffffffffff166106e583611089565b73ffffffffffffffffffffffffffffffffffffffff1603610732576040517f01bdc21c00000000000000000000000000000000000000000000000000000000815260040160405180910390fd5b600a6000838152602001908152602001600020549050919050565b6000610757611002565b60006008600081548092919061076c90612a6e565b91905055905082600a600083815260200190815260200160002081905550600b600084815260200190815260200160002060008154809291906107ae90612a6e565b91905055506107bd84826110c6565b60006009600085815260200190815260200160002080546107dd90612759565b80601f016020809104026020016040519081016040528092919081815260200182805461080990612759565b80156108565780601f1061082b57610100808354040283529160200191610856565b820191906000526020600020905b81548152906001019060200180831161083957829003601f168201915b505050505090506000815111156108ae576108ad8282610888600b6000898152602001908152602001600020546110e4565b604051602001610899929190612af2565b604051602081830303815290604052611244565b5b819250505092915050565b6108d483838360405180602001604052806000815250610b57565b505050565b6108e1611002565b6108ea816112a0565b50565b60006108f882610d09565b9050919050565b60008073ffffffffffffffffffffffffffffffffffffffff168273ffffffffffffffffffffffffffffffffffffffff16036109725760006040517f89c62b640000000000000000000000000000000000000000000000000000000081526004016109699190612298565b60405180910390fd5b600360008373ffffffffffffffffffffffffffffffffffffffff1673ffffffffffffffffffffffffffffffffffffffff168152602001908152602001600020549050919050565b6109c1611002565b6109cb6000611326565b565b6000600760009054906101000a900473ffffffffffffffffffffffffffffffffffffffff16905090565b60096020528060005260406000206000915090508054610a1690612759565b80601f0160208091040260200160405190810160405280929190818152602001828054610a4290612759565b8015610a8f5780601f10610a6457610100808354040283529160200191610a8f565b820191906000526020600020905b815481529060010190602001808311610a7257829003601f168201915b505050505081565b606060018054610aa690612759565b80601f0160208091040260200160405190810160405280929190818152602001828054610ad290612759565b8015610b1f5780601f10610af457610100808354040283529160200191610b1f565b820191906000526020600020905b815481529060010190602001808311610b0257829003601f168201915b5050505050905090565b610b3b610b34610dce565b83836113ec565b5050565b600b6020528060005260406000206000915090505481565b610b62848484610594565b610b76610b6d610dce565b8585858561155b565b50505050565b6060610b878261170c565b9050919050565b6000600560008473ffffffffffffffffffffffffffffffffffffffff1673ffffffffffffffffffffffffffffffffffffffff16815260200190815260200160002060008373ffffffffffffffffffffffffffffffffffffffff1673ffffffffffffffffffffffffffffffffffffffff16815260200190815260200160002060009054906101000a900460ff16905092915050565b610c2a611002565b600073ffffffffffffffffffffffffffffffffffffffff168173ffffffffffffffffffffffffffffffffffffffff1603610c9c5760006040517f1e4fbdf7000000000000000000000000000000000000000000000000000000008152600401610c939190612298565b60405180910390fd5b610ca581611326565b50565b6000634906490660e01b7bffffffffffffffffffffffffffffffffffffffffffffffffffffffff1916827bffffffffffffffffffffffffffffffffffffffffffffffffffffffff19161480610d025750610d018261181f565b5b9050919050565b600080610d1583611089565b9050600073ffffffffffffffffffffffffffffffffffffffff168173ffffffffffffffffffffffffffffffffffffffff1603610d8857826040517f7e273289000000000000000000000000000000000000000000000000000000008152600401610d7f919061232e565b60405180910390fd5b80915050919050565b60006004600083815260200190815260200160002060009054906101000a900473ffffffffffffffffffffffffffffffffffffffff169050919050565b600033905090565b610de38383836001611901565b505050565b600080610df484611089565b9050600073ffffffffffffffffffffffffffffffffffffffff168373ffffffffffffffffffffffffffffffffffffffff1614610e3657610e35818486611ac6565b5b600073ffffffffffffffffffffffffffffffffffffffff168173ffffffffffffffffffffffffffffffffffffffff1614610ec757610e78600085600080611901565b6001600360008373ffffffffffffffffffffffffffffffffffffffff1673ffffffffffffffffffffffffffffffffffffffff168152602001908152602001600020600082825403925050819055505b600073ffffffffffffffffffffffffffffffffffffffff168573ffffffffffffffffffffffffffffffffffffffff1614610f4a576001600360008773ffffffffffffffffffffffffffffffffffffffff1673ffffffffffffffffffffffffffffffffffffffff168152602001908152602001600020600082825401925050819055505b846002600086815260200190815260200160002060006101000a81548173ffffffffffffffffffffffffffffffffffffffff021916908373ffffffffffffffffffffffffffffffffffffffff160217905550838573ffffffffffffffffffffffffffffffffffffffff168273ffffffffffffffffffffffffffffffffffffffff167fddf252ad1be2c89b69c2b068fc378daa952ba7f163c4a11628f55a4df523b3ef60405160405180910390a4809150509392505050565b61100a610dce565b73ffffffffffffffffffffffffffffffffffffffff166110286109cd565b73ffffffffffffffffffffffffffffffffffffffff16146110875761104b610dce565b6040517f118cdaa700000000000000000000000000000000000000000000000000000000815260040161107e9190612298565b60405180910390fd5b565b60006002600083815260200190815260200160002060009054906101000a900473ffffffffffffffffffffffffffffffffffffffff169050919050565b6110e0828260405180602001604052806000815250611b8a565b5050565b60606000820361112b576040518060400160405280600181526020017f3000000000000000000000000000000000000000000000000000000000000000815250905061123f565b600082905060005b6000821461115d57808061114690612a6e565b915050600a826111569190612b45565b9150611133565b60008167ffffffffffffffff811115611179576111786123a6565b5b6040519080825280601f01601f1916602001820160405280156111ab5781602001600182028036833780820191505090505b5090505b60008514611238576001826111c49190612b76565b9150600a856111d39190612baa565b60306111df9190612bdb565b60f81b8183815181106111f5576111f4612c0f565b5b60200101907effffffffffffffffffffffffffffffffffffffffffffffffffffffffffffff1916908160001a905350600a856112319190612b45565b94506111af565b8093505050505b919050565b80600660008481526020019081526020016000209081611264919061296d565b507ff8e1a15aba9398e019f0b49df1a4fde98ee17ae345cb5f6b5e2c27f5033e8ce782604051611294919061232e565b60405180910390a15050565b60006112af6000836000610de8565b9050600073ffffffffffffffffffffffffffffffffffffffff168173ffffffffffffffffffffffffffffffffffffffff160361132257816040517f7e273289000000000000000000000000000000000000000000000000000000008152600401611319919061232e565b60405180910390fd5b5050565b6000600760009054906101000a900473ffffffffffffffffffffffffffffffffffffffff16905081600760006101000a81548173ffffffffffffffffffffffffffffffffffffffff021916908373ffffffffffffffffffffffffffffffffffffffff1602179055508173ffffffffffffffffffffffffffffffffffffffff168173ffffffffffffffffffffffffffffffffffffffff167f8be0079c531659141344cd1fd0a4f28419497f9722a3daafe3b4186f6b6457e060405160405180910390a35050565b600073ffffffffffffffffffffffffffffffffffffffff168273ffffffffffffffffffffffffffffffffffffffff160361145d57816040517f5b08ba180000000000000000000000000000000000000000000000000000000081526004016114549190612298565b60405180910390fd5b80600560008573ffffffffffffffffffffffffffffffffffffffff1673ffffffffffffffffffffffffffffffffffffffff16815260200190815260200160002060008473ffffffffffffffffffffffffffffffffffffffff1673ffffffffffffffffffffffffffffffffffffffff16815260200190815260200160002060006101000a81548160ff0219169083151502179055508173ffffffffffffffffffffffffffffffffffffffff168373ffffffffffffffffffffffffffffffffffffffff167f17307eab39ab6107e8899845ad3d59bd9653f200f220920489ca2b5937696c318360405161154e9190612127565b60405180910390a3505050565b60008373ffffffffffffffffffffffffffffffffffffffff163b1115611705578273ffffffffffffffffffffffffffffffffffffffff1663150b7a02868685856040518563ffffffff1660e01b81526004016115ba9493929190612c93565b6020604051808303816000875af19250505080156115f657506040513d601f19601f820116820180604052508101906115f39190612cf4565b60015b61167a573d8060008114611626576040519150601f19603f3d011682016040523d82523d6000602084013e61162b565b606091505b50600081510361167257836040517f64a0ae920000000000000000000000000000000000000000000000000000000081526004016116699190612298565b60405180910390fd5b805181602001fd5b63150b7a0260e01b7bffffffffffffffffffffffffffffffffffffffffffffffffffffffff1916817bffffffffffffffffffffffffffffffffffffffffffffffffffffffff19161461170357836040517f64a0ae920000000000000000000000000000000000000000000000000000000081526004016116fa9190612298565b60405180910390fd5b505b5050505050565b606061171782610d09565b50600060066000848152602001908152602001600020805461173890612759565b80601f016020809104026020016040519081016040528092919081815260200182805461176490612759565b80156117b15780601f10611786576101008083540402835291602001916117b1565b820191906000526020600020905b81548152906001019060200180831161179457829003601f168201915b5050505050905060006117c2611bae565b905060008151036117d757819250505061181a565b60008251111561180c5780826040516020016117f4929190612af2565b6040516020818303038152906040529250505061181a565b61181584611bc5565b925050505b919050565b60007f80ac58cd000000000000000000000000000000000000000000000000000000007bffffffffffffffffffffffffffffffffffffffffffffffffffffffff1916827bffffffffffffffffffffffffffffffffffffffffffffffffffffffff191614806118ea57507f5b5e139f000000000000000000000000000000000000000000000000000000007bffffffffffffffffffffffffffffffffffffffffffffffffffffffff1916827bffffffffffffffffffffffffffffffffffffffffffffffffffffffff1916145b806118fa57506118f982611c2e565b5b9050919050565b808061193a5750600073ffffffffffffffffffffffffffffffffffffffff168273ffffffffffffffffffffffffffffffffffffffff1614155b15611a6e57600061194a84610d09565b9050600073ffffffffffffffffffffffffffffffffffffffff168373ffffffffffffffffffffffffffffffffffffffff16141580156119b557508273ffffffffffffffffffffffffffffffffffffffff168173ffffffffffffffffffffffffffffffffffffffff1614155b80156119c857506119c68184610b8e565b155b15611a0a57826040517fa9fbf51f000000000000000000000000000000000000000000000000000000008152600401611a019190612298565b60405180910390fd5b8115611a6c57838573ffffffffffffffffffffffffffffffffffffffff168273ffffffffffffffffffffffffffffffffffffffff167f8c5be1e5ebec7d5bd14f71427d1e84f3dd0314c0f7b2291e5b200ac8c7c3b92560405160405180910390a45b505b836004600085815260200190815260200160002060006101000a81548173ffffffffffffffffffffffffffffffffffffffff021916908373ffffffffffffffffffffffffffffffffffffffff16021790555050505050565b611ad1838383611c98565b611b8557600073ffffffffffffffffffffffffffffffffffffffff168373ffffffffffffffffffffffffffffffffffffffff1603611b4657806040517f7e273289000000000000000000000000000000000000000000000000000000008152600401611b3d919061232e565b60405180910390fd5b81816040517f177e802f000000000000000000000000000000000000000000000000000000008152600401611b7c929190612d21565b60405180910390fd5b505050565b611b948383611d59565b611ba9611b9f610dce565b600085858561155b565b505050565b606060405180602001604052806000815250905090565b6060611bd082610d09565b506000611bdb611bae565b90506000815111611bfb5760405180602001604052806000815250611c26565b80611c0584611e52565b604051602001611c16929190612af2565b6040516020818303038152906040525b915050919050565b60007f01ffc9a7000000000000000000000000000000000000000000000000000000007bffffffffffffffffffffffffffffffffffffffffffffffffffffffff1916827bffffffffffffffffffffffffffffffffffffffffffffffffffffffff1916149050919050565b60008073ffffffffffffffffffffffffffffffffffffffff168373ffffffffffffffffffffffffffffffffffffffff1614158015611d5057508273ffffffffffffffffffffffffffffffffffffffff168473ffffffffffffffffffffffffffffffffffffffff161480611d115750611d108484610b8e565b5b80611d4f57508273ffffffffffffffffffffffffffffffffffffffff16611d3783610d91565b73ffffffffffffffffffffffffffffffffffffffff16145b5b90509392505050565b600073ffffffffffffffffffffffffffffffffffffffff168273ffffffffffffffffffffffffffffffffffffffff1603611dcb5760006040517f64a0ae92000000000000000000000000000000000000000000000000000000008152600401611dc29190612298565b60405180910390fd5b6000611dd983836000610de8565b9050600073ffffffffffffffffffffffffffffffffffffffff168173ffffffffffffffffffffffffffffffffffffffff1614611e4d5760006040517f73c6ac6e000000000000000000000000000000000000000000000000000000008152600401611e449190612298565b60405180910390fd5b505050565b606060006001611e6184611f20565b01905060008167ffffffffffffffff811115611e8057611e7f6123a6565b5b6040519080825280601f01601f191660200182016040528015611eb25781602001600182028036833780820191505090505b509050600082602001820190505b600115611f15578080600190039150507f3031323334353637383961626364656600000000000000000000000000000000600a86061a8153600a8581611f0957611f08612b16565b5b04945060008503611ec0575b819350505050919050565b600080600090507a184f03e93ff9f4daa797ed6e38ed64bf6a1f0100000000000000008310611f7e577a184f03e93ff9f4daa797ed6e38ed64bf6a1f0100000000000000008381611f7457611f73612b16565b5b0492506040810190505b6d04ee2d6d415b85acef81000000008310611fbb576d04ee2d6d415b85acef81000000008381611fb157611fb0612b16565b5b0492506020810190505b662386f26fc100008310611fea57662386f26fc100008381611fe057611fdf612b16565b5b0492506010810190505b6305f5e1008310612013576305f5e100838161200957612008612b16565b5b0492506008810190505b612710831061203857612710838161202e5761202d612b16565b5b0492506004810190505b6064831061205b576064838161205157612050612b16565b5b0492506002810190505b600a831061206a576001810190505b80915050919050565b6000604051905090565b600080fd5b600080fd5b60007fffffffff0000000000000000000000000000000000000000000000000000000082169050919050565b6120bc81612087565b81146120c757600080fd5b50565b6000813590506120d9816120b3565b92915050565b6000602082840312156120f5576120f461207d565b5b6000612103848285016120ca565b91505092915050565b60008115159050919050565b6121218161210c565b82525050565b600060208201905061213c6000830184612118565b92915050565b600081519050919050565b600082825260208201905092915050565b60005b8381101561217c578082015181840152602081019050612161565b60008484015250505050565b6000601f19601f8301169050919050565b60006121a482612142565b6121ae818561214d565b93506121be81856020860161215e565b6121c781612188565b840191505092915050565b600060208201905081810360008301526121ec8184612199565b905092915050565b6000819050919050565b612207816121f4565b811461221257600080fd5b50565b600081359050612224816121fe565b92915050565b6000602082840312156122405761223f61207d565b5b600061224e84828501612215565b91505092915050565b600073ffffffffffffffffffffffffffffffffffffffff82169050919050565b600061228282612257565b9050919050565b61229281612277565b82525050565b60006020820190506122ad6000830184612289565b92915050565b6122bc81612277565b81146122c757600080fd5b50565b6000813590506122d9816122b3565b92915050565b600080604083850312156122f6576122f561207d565b5b6000612304858286016122ca565b925050602061231585828601612215565b9150509250929050565b612328816121f4565b82525050565b6000602082019050612343600083018461231f565b92915050565b6000806000606084860312156123625761236161207d565b5b6000612370868287016122ca565b9350506020612381868287016122ca565b925050604061239286828701612215565b9150509250925092565b600080fd5b600080fd5b7f4e487b7100000000000000000000000000000000000000000000000000000000600052604160045260246000fd5b6123de82612188565b810181811067ffffffffffffffff821117156123fd576123fc6123a6565b5b80604052505050565b6000612410612073565b905061241c82826123d5565b919050565b600067ffffffffffffffff82111561243c5761243b6123a6565b5b61244582612188565b9050602081019050919050565b82818337600083830152505050565b600061247461246f84612421565b612406565b9050828152602081018484840111156124905761248f6123a1565b5b61249b848285612452565b509392505050565b600082601f8301126124b8576124b761239c565b5b81356124c8848260208601612461565b91505092915050565b600080604083850312156124e8576124e761207d565b5b60006124f685828601612215565b925050602083013567ffffffffffffffff81111561251757612516612082565b5b612523858286016124a3565b9150509250929050565b6000602082840312156125435761254261207d565b5b6000612551848285016122ca565b91505092915050565b6125638161210c565b811461256e57600080fd5b50565b6000813590506125808161255a565b92915050565b6000806040838503121561259d5761259c61207d565b5b60006125ab858286016122ca565b92505060206125bc85828601612571565b9150509250929050565b600067ffffffffffffffff8211156125e1576125e06123a6565b5b6125ea82612188565b9050602081019050919050565b600061260a612605846125c6565b612406565b905082815260208101848484011115612626576126256123a1565b5b612631848285612452565b509392505050565b600082601f83011261264e5761264d61239c565b5b813561265e8482602086016125f7565b91505092915050565b600080600080608085870312156126815761268061207d565b5b600061268f878288016122ca565b94505060206126a0878288016122ca565b93505060406126b187828801612215565b925050606085013567ffffffffffffffff8111156126d2576126d1612082565b5b6126de87828801612639565b91505092959194509250565b600080604083850312156127015761270061207d565b5b600061270f858286016122ca565b9250506020612720858286016122ca565b9150509250929050565b7f4e487b7100000000000000000000000000000000000000000000000000000000600052602260045260246000fd5b6000600282049050600182168061277157607f821691505b6020821081036127845761278361272a565b5b50919050565b600060608201905061279f6000830186612289565b6127ac602083018561231f565b6127b96040830184612289565b949350505050565b60008190508160005260206000209050919050565b60006020601f8301049050919050565b600082821b905092915050565b6000600883026128237fffffffffffffffffffffffffffffffffffffffffffffffffffffffffffffffff826127e6565b61282d86836127e6565b95508019841693508086168417925050509392505050565b6000819050919050565b600061286a612865612860846121f4565b612845565b6121f4565b9050919050565b6000819050919050565b6128848361284f565b61289861289082612871565b8484546127f3565b825550505050565b600090565b6128ad6128a0565b6128b881848461287b565b505050565b5b818110156128dc576128d16000826128a5565b6001810190506128be565b5050565b601f821115612921576128f2816127c1565b6128fb846127d6565b8101602085101561290a578190505b61291e612916856127d6565b8301826128bd565b50505b505050565b600082821c905092915050565b600061294460001984600802612926565b1980831691505092915050565b600061295d8383612933565b9150826002028217905092915050565b61297682612142565b67ffffffffffffffff81111561298f5761298e6123a6565b5b6129998254612759565b6129a48282856128e0565b600060209050601f8311600181146129d757600084156129c5578287015190505b6129cf8582612951565b865550612a37565b601f1984166129e5866127c1565b60005b82811015612a0d578489015182556001820191506020850194506020810190506129e8565b86831015612a2a5784890151612a26601f891682612933565b8355505b6001600288020188555050505b505050505050565b7f4e487b7100000000000000000000000000000000000000000000000000000000600052601160045260246000fd5b6000612a79826121f4565b91507fffffffffffffffffffffffffffffffffffffffffffffffffffffffffffffffff8203612aab57612aaa612a3f565b5b600182019050919050565b600081905092915050565b6000612acc82612142565b612ad68185612ab6565b9350612ae681856020860161215e565b80840191505092915050565b6000612afe8285612ac1565b9150612b0a8284612ac1565b91508190509392505050565b7f4e487b7100000000000000000000000000000000000000000000000000000000600052601260045260246000fd5b6000612b50826121f4565b9150612b5b836121f4565b925082612b6b57612b6a612b16565b5b828204905092915050565b6000612b81826121f4565b9150612b8c836121f4565b9250828203905081811115612ba457612ba3612a3f565b5b92915050565b6000612bb5826121f4565b9150612bc0836121f4565b925082612bd057612bcf612b16565b5b828206905092915050565b6000612be6826121f4565b9150612bf1836121f4565b9250828201905080821115612c0957612c08612a3f565b5b92915050565b7f4e487b7100000000000000000000000000000000000000000000000000000000600052603260045260246000fd5b600081519050919050565b600082825260208201905092915050565b6000612c6582612c3e565b612c6f8185612c49565b9350612c7f81856020860161215e565b612c8881612188565b840191505092915050565b6000608082019050612ca86000830187612289565b612cb56020830186612289565b612cc2604083018561231f565b8181036060830152612cd48184612c5a565b905095945050505050565b600081519050612cee816120b3565b92915050565b600060208284031215612d0a57612d0961207d565b5b6000612d1884828501612cdf565b91505092915050565b6000604082019050612d366000830185612289565b612d43602083018461231f565b939250505056fea264697066735822122080bc7eeeecacc61d7c83845bceda12c28744b0e8c95a0ce99e9c715e20d7b3c664736f6c634300081c0033",
  "linkReferences": {},
  "deployedLinkReferences": {}
}