{
  "_format": "hh-sol-artifact-1",
  "contractName": "IngredientToken",
  "sourceName": "contracts/IngredientToken.sol",
  "abi": [
    {
      "inputs": [],
      "stateMutability": "nonpayable",
      "type": "constructor"
    },
    {
      "inputs": [
        {
          "internalType": "address",
          "name": "sender",
          "type": "address"
        },
        {
          "internalType": "uint256",
          "name": "balance",
          "type": "uint256"
        },
        {
          "internalType": "uint256",
          "name": "needed",
          "type": "uint256"
        },
        {
          "internalType": "uint256",
          "name": "tokenId",
          "type": "uint256"
        }
      ],
      "name": "ERC1155InsufficientBalance",
      "type": "error"
    },
    {
      "inputs": [
        {
          "internalType": "address",
          "name": "approver",
          "type": "address"
        }
      ],
      "name": "ERC1155InvalidApprover",
      "type": "error"
    },
    {
      "inputs": [
        {
          "internalType": "uint256",
          "name": "idsLength",
          "type": "uint256"
        },
        {
          "internalType": "uint256",
          "name": "valuesLength",
          "type": "uint256"
        }
      ],
      "name": "ERC1155InvalidArrayLength",
      "type": "error"
    },
    {
      "inputs": [
        {
          "internalType": "address",
          "name": "operator",
          "type": "address"
        }
      ],
      "name": "ERC1155InvalidOperator",
      "type": "error"
    },
    {
      "inputs": [
        {
          "internalType": "address",
          "name": "receiver",
          "type": "address"
        }
      ],
      "name": "ERC1155InvalidReceiver",
      "type": "error"
    },
    {
      "inputs": [
        {
          "internalType": "address",
          "name": "sender",
          "type": "address"
        }
      ],
      "name": "ERC1155InvalidSender",
      "type": "error"
    },
    {
      "inputs": [
        {
          "internalType": "address",
          "name": "operator",
          "type": "address"
        },
        {
          "internalType": "address",
          "name": "owner",
          "type": "address"
        }
      ],
      "name": "ERC1155MissingApprovalForAll",
      "type": "error"
    },
    {
      "inputs": [],
      "name": "IngredientAlreadyExists",
      "type": "error"
    },
    {
      "inputs": [],
      "name": "IngredientNotExists",
      "type": "error"
    },
    {
      "inputs": [],
      "name": "InvalidIngredientID",
      "type": "error"
    },
    {
      "inputs": [
        {
          "internalType": "address",
          "name": "owner",
          "type": "address"
        }
      ],
      "name": "OwnableInvalidOwner",
      "type": "error"
    },
    {
      "inputs": [
        {
          "internalType": "address",
          "name": "account",
          "type": "address"
        }
      ],
      "name": "OwnableUnauthorizedAccount",
      "type": "error"
    },
    {
      "anonymous": false,
      "inputs": [
        {
          "indexed": true,
          "internalType": "address",
          "name": "account",
          "type": "address"
        },
        {
          "indexed": true,
          "internalType": "address",
          "name": "operator",
          "type": "address"
        },
        {
          "indexed": false,
          "internalType": "bool",
          "name": "approved",
          "type": "bool"
        }
      ],
      "name": "ApprovalForAll",
      "type": "event"
    },
    {
      "anonymous": false,
      "inputs": [
        {
          "indexed": true,
          "internalType": "uint256",
          "name": "id",
          "type": "uint256"
        },
        {
          "indexed": false,
          "internalType": "string",
          "name": "name",
          "type": "string"
        }
      ],
      "name": "IngredientRegistered",
      "type": "event"
    },
    {
      "anonymous": false,
      "inputs": [
        {
          "indexed": true,
          "internalType": "uint256",
          "name": "id",
          "type": "uint256"
        }
      ],
      "name": "IngredientRemoved",
      "type": "event"
    },
    {
      "anonymous": false,
      "inputs": [
        {
          "indexed": true,
          "internalType": "address",
          "name": "previousOwner",
          "type": "address"
        },
        {
          "indexed": true,
          "internalType": "address",
          "name": "newOwner",
          "type": "address"
        }
      ],
      "name": "OwnershipTransferred",
      "type": "event"
    },
    {
      "anonymous": false,
      "inputs": [
        {
          "indexed": true,
          "internalType": "address",
          "name": "operator",
          "type": "address"
        },
        {
          "indexed": true,
          "internalType": "address",
          "name": "from",
          "type": "address"
        },
        {
          "indexed": true,
          "internalType": "address",
          "name": "to",
          "type": "address"
        },
        {
          "indexed": false,
          "internalType": "uint256[]",
          "name": "ids",
          "type": "uint256[]"
        },
        {
          "indexed": false,
          "internalType": "uint256[]",
          "name": "values",
          "type": "uint256[]"
        }
      ],
      "name": "TransferBatch",
      "type": "event"
    },
    {
      "anonymous": false,
      "inputs": [
        {
          "indexed": true,
          "internalType": "address",
          "name": "operator",
          "type": "address"
        },
        {
          "indexed": true,
          "internalType": "address",
          "name": "from",
          "type": "address"
        },
        {
          "indexed": true,
          "internalType": "address",
          "name": "to",
          "type": "address"
        },
        {
          "indexed": false,
          "internalType": "uint256",
          "name": "id",
          "type": "uint256"
        },
        {
          "indexed": false,
          "internalType": "uint256",
          "name": "value",
          "type": "uint256"
        }
      ],
      "name": "TransferSingle",
      "type": "event"
    },
    {
      "anonymous": false,
      "inputs": [
        {
          "indexed": false,
          "internalType": "string",
          "name": "value",
          "type": "string"
        },
        {
          "indexed": true,
          "internalType": "uint256",
          "name": "id",
          "type": "uint256"
        }
      ],
      "name": "URI",
      "type": "event"
    },
    {
      "inputs": [
        {
          "internalType": "address",
          "name": "account",
          "type": "address"
        },
        {
          "internalType": "uint256",
          "name": "id",
          "type": "uint256"
        }
      ],
      "name": "balanceOf",
      "outputs": [
        {
          "internalType": "uint256",
          "name": "",
          "type": "uint256"
        }
      ],
      "stateMutability": "view",
      "type": "function"
    },
    {
      "inputs": [
        {
          "internalType": "address[]",
          "name": "accounts",
          "type": "address[]"
        },
        {
          "internalType": "uint256[]",
          "name": "ids",
          "type": "uint256[]"
        }
      ],
      "name": "balanceOfBatch",
      "outputs": [
        {
          "internalType": "uint256[]",
          "name": "",
          "type": "uint256[]"
        }
      ],
      "stateMutability": "view",
      "type": "function"
    },
    {
      "inputs": [
        {
          "internalType": "address",
          "name": "from",
          "type": "address"
        },
        {
          "internalType": "uint256",
          "name": "id",
          "type": "uint256"
        },
        {
          "internalType": "uint256",
          "name": "amount",
          "type": "uint256"
        }
      ],
      "name": "burn",
      "outputs": [],
      "stateMutability": "nonpayable",
      "type": "function"
    },
    {
      "inputs": [
        {
          "internalType": "address",
          "name": "from",
          "type": "address"
        },
        {
          "internalType": "uint256[]",
          "name": "ids",
          "type": "uint256[]"
        },
        {
          "internalType": "uint256[]",
          "name": "amounts",
          "type": "uint256[]"
        }
      ],
      "name": "burnBatch",
      "outputs": [],
      "stateMutability": "nonpayable",
      "type": "function"
    },
    {
      "inputs": [
        {
          "internalType": "uint256",
          "name": "id",
          "type": "uint256"
        }
      ],
      "name": "exists",
      "outputs": [
        {
          "internalType": "bool",
          "name": "",
          "type": "bool"
        }
      ],
      "stateMutability": "view",
      "type": "function"
    },
    {
      "inputs": [
        {
          "internalType": "uint256",
          "name": "id",
          "type": "uint256"
        }
      ],
      "name": "getIngredientName",
      "outputs": [
        {
          "internalType": "string",
          "name": "",
          "type": "string"
        }
      ],
      "stateMutability": "view",
      "type": "function"
    },
    {
      "inputs": [],
      "name": "getValidIngredients",
      "outputs": [
        {
          "internalType": "uint256[]",
          "name": "",
          "type": "uint256[]"
        }
      ],
      "stateMutability": "view",
      "type": "function"
    },
    {
      "inputs": [
        {
          "internalType": "uint256",
          "name": "",
          "type": "uint256"
        }
      ],
      "name": "ingredientNames",
      "outputs": [
        {
          "internalType": "string",
          "name": "",
          "type": "string"
        }
      ],
      "stateMutability": "view",
      "type": "function"
    },
    {
      "inputs": [
        {
          "internalType": "address",
          "name": "account",
          "type": "address"
        },
        {
          "internalType": "address",
          "name": "operator",
          "type": "address"
        }
      ],
      "name": "isApprovedForAll",
      "outputs": [
        {
          "internalType": "bool",
          "name": "",
          "type": "bool"
        }
      ],
      "stateMutability": "view",
      "type": "function"
    },
    {
      "inputs": [
        {
          "internalType": "uint256",
          "name": "id",
          "type": "uint256"
        }
      ],
      "name": "isValidIngredient",
      "outputs": [
        {
          "internalType": "bool",
          "name": "",
          "type": "bool"
        }
      ],
      "stateMutability": "view",
      "type": "function"
    },
    {
      "inputs": [],
      "name": "maxIngredientId",
      "outputs": [
        {
          "internalType": "uint256",
          "name": "",
          "type": "uint256"
        }
      ],
      "stateMutability": "view",
      "type": "function"
    },
    {
      "inputs": [
        {
          "internalType": "address",
          "name": "to",
          "type": "address"
        },
        {
          "internalType": "uint256",
          "name": "id",
          "type": "uint256"
        },
        {
          "internalType": "uint256",
          "name": "amount",
          "type": "uint256"
        },
        {
          "internalType": "bytes",
          "name": "data",
          "type": "bytes"
        }
      ],
      "name": "mint",
      "outputs": [],
      "stateMutability": "nonpayable",
      "type": "function"
    },
    {
      "inputs": [
        {
          "internalType": "address",
          "name": "to",
          "type": "address"
        },
        {
          "internalType": "uint256[]",
          "name": "ids",
          "type": "uint256[]"
        },
        {
          "internalType": "uint256[]",
          "name": "amounts",
          "type": "uint256[]"
        },
        {
          "internalType": "bytes",
          "name": "data",
          "type": "bytes"
        }
      ],
      "name": "mintBatch",
      "outputs": [],
      "stateMutability": "nonpayable",
      "type": "function"
    },
    {
      "inputs": [],
      "name": "owner",
      "outputs": [
        {
          "internalType": "address",
          "name": "",
          "type": "address"
        }
      ],
      "stateMutability": "view",
      "type": "function"
    },
    {
      "inputs": [
        {
          "internalType": "uint256",
          "name": "id",
          "type": "uint256"
        },
        {
          "internalType": "string",
          "name": "name",
          "type": "string"
        }
      ],
      "name": "registerIngredient",
      "outputs": [],
      "stateMutability": "nonpayable",
      "type": "function"
    },
    {
      "inputs": [
        {
          "internalType": "uint256",
          "name": "id",
          "type": "uint256"
        }
      ],
      "name": "removeIngredient",
      "outputs": [],
      "stateMutability": "nonpayable",
      "type": "function"
    },
    {
      "inputs": [],
      "name": "renounceOwnership",
      "outputs": [],
      "stateMutability": "nonpayable",
      "type": "function"
    },
    {
      "inputs": [
        {
          "internalType": "address",
          "name": "from",
          "type": "address"
        },
        {
          "internalType": "address",
          "name": "to",
          "type": "address"
        },
        {
          "internalType": "uint256[]",
          "name": "ids",
          "type": "uint256[]"
        },
        {
          "internalType": "uint256[]",
          "name": "values",
          "type": "uint256[]"
        },
        {
          "internalType": "bytes",
          "name": "data",
          "type": "bytes"
        }
      ],
      "name": "safeBatchTransferFrom",
      "outputs": [],
      "stateMutability": "nonpayable",
      "type": "function"
    },
    {
      "inputs": [
        {
          "internalType": "address",
          "name": "from",
          "type": "address"
        },
        {
          "internalType": "address",
          "name": "to",
          "type": "address"
        },
        {
          "internalType": "uint256",
          "name": "id",
          "type": "uint256"
        },
        {
          "internalType": "uint256",
          "name": "value",
          "type": "uint256"
        },
        {
          "internalType": "bytes",
          "name": "data",
          "type": "bytes"
        }
      ],
      "name": "safeTransferFrom",
      "outputs": [],
      "stateMutability": "nonpayable",
      "type": "function"
    },
    {
      "inputs": [
        {
          "internalType": "address",
          "name": "operator",
          "type": "address"
        },
        {
          "internalType": "bool",
          "name": "approved",
          "type": "bool"
        }
      ],
      "name": "setApprovalForAll",
      "outputs": [],
      "stateMutability": "nonpayable",
      "type": "function"
    },
    {
      "inputs": [
        {
          "internalType": "bytes4",
          "name": "interfaceId",
          "type": "bytes4"
        }
      ],
      "name": "supportsInterface",
      "outputs": [
        {
          "internalType": "bool",
          "name": "",
          "type": "bool"
        }
      ],
      "stateMutability": "view",
      "type": "function"
    },
    {
      "inputs": [],
      "name": "totalSupply",
      "outputs": [
        {
          "internalType": "uint256",
          "name": "",
          "type": "uint256"
        }
      ],
      "stateMutability": "view",
      "type": "function"
    },
    {
      "inputs": [
        {
          "internalType": "uint256",
          "name": "id",
          "type": "uint256"
        }
      ],
      "name": "totalSupply",
      "outputs": [
        {
          "internalType": "uint256",
          "name": "",
          "type": "uint256"
        }
      ],
      "stateMutability": "view",
      "type": "function"
    },
    {
      "inputs": [
        {
          "internalType": "address",
          "name": "newOwner",
          "type": "address"
        }
      ],
      "name": "transferOwnership",
      "outputs": [],
      "stateMutability": "nonpayable",
      "type": "function"
    },
    {
      "inputs": [
        {
          "internalType": "uint256",
          "name": "",
          "type": "uint256"
        }
      ],
      "name": "uri",
      "outputs": [
        {
          "internalType": "string",
          "name": "",
          "type": "string"
        }
      ],
      "stateMutability": "view",
      "type": "function"
    },
    {
      "inputs": [
        {
          "internalType": "uint256",
          "name": "",
          "type": "uint256"
        }
      ],
      "name": "validIngredients",
      "outputs": [
        {
          "internalType": "bool",
          "name": "",
          "type": "bool"
        }
      ],
      "stateMutability": "view",
      "type": "function"
    }
  ],
  "bytecode": "0x608060405234801561001057600080fd5b503360405180602001604052806000815250610031816100b960201b60201c565b50600073ffffffffffffffffffffffffffffffffffffffff168173ffffffffffffffffffffffffffffffffffffffff16036100a45760006040517f1e4fbdf700000000000000000000000000000000000000000000000000000000815260040161009b91906101d3565b60405180910390fd5b6100b3816100cc60201b60201c565b50610510565b80600290816100c8919061043e565b5050565b6000600560009054906101000a900473ffffffffffffffffffffffffffffffffffffffff16905081600560006101000a81548173ffffffffffffffffffffffffffffffffffffffff021916908373ffffffffffffffffffffffffffffffffffffffff1602179055508173ffffffffffffffffffffffffffffffffffffffff168173ffffffffffffffffffffffffffffffffffffffff167f8be0079c531659141344cd1fd0a4f28419497f9722a3daafe3b4186f6b6457e060405160405180910390a35050565b600073ffffffffffffffffffffffffffffffffffffffff82169050919050565b60006101bd82610192565b9050919050565b6101cd816101b2565b82525050565b60006020820190506101e860008301846101c4565b92915050565b600081519050919050565b7f4e487b7100000000000000000000000000000000000000000000000000000000600052604160045260246000fd5b7f4e487b7100000000000000000000000000000000000000000000000000000000600052602260045260246000fd5b6000600282049050600182168061026f57607f821691505b60208210810361028257610281610228565b5b50919050565b60008190508160005260206000209050919050565b60006020601f8301049050919050565b600082821b905092915050565b6000600883026102ea7fffffffffffffffffffffffffffffffffffffffffffffffffffffffffffffffff826102ad565b6102f486836102ad565b95508019841693508086168417925050509392505050565b6000819050919050565b6000819050919050565b600061033b6103366103318461030c565b610316565b61030c565b9050919050565b6000819050919050565b61035583610320565b61036961036182610342565b8484546102ba565b825550505050565b600090565b61037e610371565b61038981848461034c565b505050565b5b818110156103ad576103a2600082610376565b60018101905061038f565b5050565b601f8211156103f2576103c381610288565b6103cc8461029d565b810160208510156103db578190505b6103ef6103e78561029d565b83018261038e565b50505b505050565b600082821c905092915050565b6000610415600019846008026103f7565b1980831691505092915050565b600061042e8383610404565b9150826002028217905092915050565b610447826101ee565b67ffffffffffffffff8111156104605761045f6101f9565b5b61046a8254610257565b6104758282856103b1565b600060209050601f8311600181146104a85760008415610496578287015190505b6104a08582610422565b865550610508565b601f1984166104b686610288565b60005b828110156104de578489015182556001820191506020850194506020810190506104b9565b868310156104fb57848901516104f7601f891682610404565b8355505b6001600288020188555050505b505050505050565b6136c18061051f6000396000f3fe608060405234801561001057600080fd5b506004361061018d5760003560e01c8063731133e9116100de578063d02ef86311610097578063f242432a11610071578063f242432a146104ca578063f2fde38b146104e6578063f5298aca14610502578063f63eb89d1461051e5761018d565b8063d02ef8631461043a578063e985e9c51461046a578063f208f8ce1461049a5761018d565b8063731133e9146103665780638da5cb5b14610382578063a22cb465146103a0578063bd85b039146103bc578063c54de01b146103ec578063cb65c9191461040a5761018d565b806341d0f6411161014b5780634f558e79116101255780634f558e79146102e05780635c8ad6c7146103105780636b20c45414610340578063715018a61461035c5761018d565b806341d0f64114610278578063447bf3a2146102945780634e1273f4146102b05761018d565b8062fdd58e1461019257806301ffc9a7146101c25780630e89341c146101f257806318160ddd146102225780631f7fdffa146102405780632eb2c2d61461025c575b600080fd5b6101ac60048036038101906101a7919061247c565b61053c565b6040516101b991906124cb565b60405180910390f35b6101dc60048036038101906101d7919061253e565b610596565b6040516101e99190612586565b60405180910390f35b61020c600480360381019061020791906125a1565b610678565b604051610219919061265e565b60405180910390f35b61022a61070c565b60405161023791906124cb565b60405180910390f35b61025a6004803603810190610255919061287d565b610716565b005b61027660048036038101906102719190612938565b6107bb565b005b610292600480360381019061028d9190612aa8565b610863565b005b6102ae60048036038101906102a991906125a1565b61095e565b005b6102ca60048036038101906102c59190612bc7565b610a84565b6040516102d79190612cfd565b60405180910390f35b6102fa60048036038101906102f591906125a1565b610b8d565b6040516103079190612586565b60405180910390f35b61032a600480360381019061032591906125a1565b610ba1565b6040516103379190612586565b60405180910390f35b61035a60048036038101906103559190612d1f565b610bcb565b005b610364610be3565b005b610380600480360381019061037b9190612daa565b610bf7565b005b61038a610c68565b6040516103979190612e3c565b60405180910390f35b6103ba60048036038101906103b59190612e83565b610c92565b005b6103d660048036038101906103d191906125a1565b610ca8565b6040516103e391906124cb565b60405180910390f35b6103f4610cc5565b60405161040191906124cb565b60405180910390f35b610424600480360381019061041f91906125a1565b610ccb565b604051610431919061265e565b60405180910390f35b610454600480360381019061044f91906125a1565b610d6b565b6040516104619190612586565b60405180910390f35b610484600480360381019061047f9190612ec3565b610d8b565b6040516104919190612586565b60405180910390f35b6104b460048036038101906104af91906125a1565b610e1f565b6040516104c1919061265e565b60405180910390f35b6104e460048036038101906104df9190612f03565b610f1b565b005b61050060048036038101906104fb9190612f9a565b610fc3565b005b61051c60048036038101906105179190612fc7565b611049565b005b6105266110b8565b6040516105339190612cfd565b60405180910390f35b600080600083815260200190815260200160002060008473ffffffffffffffffffffffffffffffffffffffff1673ffffffffffffffffffffffffffffffffffffffff16815260200190815260200160002054905092915050565b60007fd9b67a26000000000000000000000000000000000000000000000000000000007bffffffffffffffffffffffffffffffffffffffffffffffffffffffff1916827bffffffffffffffffffffffffffffffffffffffffffffffffffffffff1916148061066157507f0e89341c000000000000000000000000000000000000000000000000000000007bffffffffffffffffffffffffffffffffffffffffffffffffffffffff1916827bffffffffffffffffffffffffffffffffffffffffffffffffffffffff1916145b80610671575061067082611234565b5b9050919050565b60606002805461068790613049565b80601f01602080910402602001604051908101604052809291908181526020018280546106b390613049565b80156107005780601f106106d557610100808354040283529160200191610700565b820191906000526020600020905b8154815290600101906020018083116106e357829003601f168201915b50505050509050919050565b6000600454905090565b61071e61129e565b60005b83518110156107a857600660008583815181106107415761074061307a565b5b6020026020010151815260200190815260200160002060009054906101000a900460ff1661079b576040517fb026afda00000000000000000000000000000000000000000000000000000000815260040160405180910390fd5b8080600101915050610721565b506107b584848484611325565b50505050565b60006107c56113ab565b90508073ffffffffffffffffffffffffffffffffffffffff168673ffffffffffffffffffffffffffffffffffffffff161415801561080a57506108088682610d8b565b155b1561084e5780866040517fe237d9220000000000000000000000000000000000000000000000000000000081526004016108459291906130a9565b60405180910390fd5b61085b86868686866113b3565b505050505050565b61086b61129e565b6006600083815260200190815260200160002060009054906101000a900460ff16156108c3576040517f7de6844700000000000000000000000000000000000000000000000000000000815260040160405180910390fd5b60016006600084815260200190815260200160002060006101000a81548160ff0219169083151502179055508060076000848152602001908152602001600020908161090f919061327e565b5060085482111561092257816008819055505b817fab14cf47dafc6e6f5ad512b59307f5ecb35da8c8806f4259b2c46bedb3a79b0182604051610952919061265e565b60405180910390a25050565b61096661129e565b6006600082815260200190815260200160002060009054906101000a900460ff166109bd576040517ffca0aa6a00000000000000000000000000000000000000000000000000000000815260040160405180910390fd5b60006109c882610ca8565b1115610a09576040517f08c379a0000000000000000000000000000000000000000000000000000000008152600401610a00906133c2565b60405180910390fd5b60006006600083815260200190815260200160002060006101000a81548160ff021916908315150217905550600760008281526020019081526020016000206000610a549190612377565b807f649feb93d2489e5f18d5b966af0e2e1a8bb86425417906a0a3ce2b9b4a2d5d2360405160405180910390a250565b60608151835114610ad057815183516040517f5b059991000000000000000000000000000000000000000000000000000000008152600401610ac79291906133e2565b60405180910390fd5b6000835167ffffffffffffffff811115610aed57610aec612685565b5b604051908082528060200260200182016040528015610b1b5781602001602082028036833780820191505090505b50905060005b8451811015610b8257610b58610b4082876114ab90919063ffffffff16565b610b5383876114bf90919063ffffffff16565b61053c565b828281518110610b6b57610b6a61307a565b5b602002602001018181525050806001019050610b21565b508091505092915050565b600080610b9983610ca8565b119050919050565b60006006600083815260200190815260200160002060009054906101000a900460ff169050919050565b610bd361129e565b610bde8383836114d3565b505050565b610beb61129e565b610bf56000611567565b565b610bff61129e565b6006600084815260200190815260200160002060009054906101000a900460ff16610c56576040517fb026afda00000000000000000000000000000000000000000000000000000000815260040160405180910390fd5b610c628484848461162d565b50505050565b6000600560009054906101000a900473ffffffffffffffffffffffffffffffffffffffff16905090565b610ca4610c9d6113ab565b83836116c6565b5050565b600060036000838152602001908152602001600020549050919050565b60085481565b60076020528060005260406000206000915090508054610cea90613049565b80601f0160208091040260200160405190810160405280929190818152602001828054610d1690613049565b8015610d635780601f10610d3857610100808354040283529160200191610d63565b820191906000526020600020905b815481529060010190602001808311610d4657829003601f168201915b505050505081565b60066020528060005260406000206000915054906101000a900460ff1681565b6000600160008473ffffffffffffffffffffffffffffffffffffffff1673ffffffffffffffffffffffffffffffffffffffff16815260200190815260200160002060008373ffffffffffffffffffffffffffffffffffffffff1673ffffffffffffffffffffffffffffffffffffffff16815260200190815260200160002060009054906101000a900460ff16905092915050565b60606006600083815260200190815260200160002060009054906101000a900460ff16610e78576040517ffca0aa6a00000000000000000000000000000000000000000000000000000000815260040160405180910390fd5b600760008381526020019081526020016000208054610e9690613049565b80601f0160208091040260200160405190810160405280929190818152602001828054610ec290613049565b8015610f0f5780601f10610ee457610100808354040283529160200191610f0f565b820191906000526020600020905b815481529060010190602001808311610ef257829003601f168201915b50505050509050919050565b6000610f256113ab565b90508073ffffffffffffffffffffffffffffffffffffffff168673ffffffffffffffffffffffffffffffffffffffff1614158015610f6a5750610f688682610d8b565b155b15610fae5780866040517fe237d922000000000000000000000000000000000000000000000000000000008152600401610fa59291906130a9565b60405180910390fd5b610fbb8686868686611836565b505050505050565b610fcb61129e565b600073ffffffffffffffffffffffffffffffffffffffff168173ffffffffffffffffffffffffffffffffffffffff160361103d5760006040517f1e4fbdf70000000000000000000000000000000000000000000000000000000081526004016110349190612e3c565b60405180910390fd5b61104681611567565b50565b61105161129e565b6006600083815260200190815260200160002060009054906101000a900460ff166110a8576040517fb026afda00000000000000000000000000000000000000000000000000000000815260040160405180910390fd5b6110b3838383611941565b505050565b6060600060016008546110cb919061343a565b67ffffffffffffffff8111156110e4576110e3612685565b5b6040519080825280602002602001820160405280156111125781602001602082028036833780820191505090505b5090506000805b600854811161118a576006600082815260200190815260200160002060009054906101000a900460ff1615611177578083838151811061115c5761115b61307a565b5b60200260200101818152505081806111739061346e565b9250505b80806111829061346e565b915050611119565b5060008167ffffffffffffffff8111156111a7576111a6612685565b5b6040519080825280602002602001820160405280156111d55781602001602082028036833780820191505090505b50905060005b8281101561122a578381815181106111f6576111f561307a565b5b60200260200101518282815181106112115761121061307a565b5b60200260200101818152505080806001019150506111db565b5080935050505090565b60007f01ffc9a7000000000000000000000000000000000000000000000000000000007bffffffffffffffffffffffffffffffffffffffffffffffffffffffff1916827bffffffffffffffffffffffffffffffffffffffffffffffffffffffff1916149050919050565b6112a66113ab565b73ffffffffffffffffffffffffffffffffffffffff166112c4610c68565b73ffffffffffffffffffffffffffffffffffffffff1614611323576112e76113ab565b6040517f118cdaa700000000000000000000000000000000000000000000000000000000815260040161131a9190612e3c565b60405180910390fd5b565b600073ffffffffffffffffffffffffffffffffffffffff168473ffffffffffffffffffffffffffffffffffffffff16036113975760006040517f57f447ce00000000000000000000000000000000000000000000000000000000815260040161138e9190612e3c565b60405180910390fd5b6113a56000858585856119e8565b50505050565b600033905090565b600073ffffffffffffffffffffffffffffffffffffffff168473ffffffffffffffffffffffffffffffffffffffff16036114255760006040517f57f447ce00000000000000000000000000000000000000000000000000000000815260040161141c9190612e3c565b60405180910390fd5b600073ffffffffffffffffffffffffffffffffffffffff168573ffffffffffffffffffffffffffffffffffffffff16036114975760006040517f01a8351400000000000000000000000000000000000000000000000000000000815260040161148e9190612e3c565b60405180910390fd5b6114a485858585856119e8565b5050505050565b600060208202602084010151905092915050565b600060208202602084010151905092915050565b600073ffffffffffffffffffffffffffffffffffffffff168373ffffffffffffffffffffffffffffffffffffffff16036115455760006040517f01a8351400000000000000000000000000000000000000000000000000000000815260040161153c9190612e3c565b60405180910390fd5b6115628360008484604051806020016040528060008152506119e8565b505050565b6000600560009054906101000a900473ffffffffffffffffffffffffffffffffffffffff16905081600560006101000a81548173ffffffffffffffffffffffffffffffffffffffff021916908373ffffffffffffffffffffffffffffffffffffffff1602179055508173ffffffffffffffffffffffffffffffffffffffff168173ffffffffffffffffffffffffffffffffffffffff167f8be0079c531659141344cd1fd0a4f28419497f9722a3daafe3b4186f6b6457e060405160405180910390a35050565b600073ffffffffffffffffffffffffffffffffffffffff168473ffffffffffffffffffffffffffffffffffffffff160361169f5760006040517f57f447ce0000000000000000000000000000000000000000000000000000000081526004016116969190612e3c565b60405180910390fd5b6000806116ac8585611a9a565b915091506116be6000878484876119e8565b505050505050565b600073ffffffffffffffffffffffffffffffffffffffff168273ffffffffffffffffffffffffffffffffffffffff16036117385760006040517fced3e10000000000000000000000000000000000000000000000000000000000815260040161172f9190612e3c565b60405180910390fd5b80600160008573ffffffffffffffffffffffffffffffffffffffff1673ffffffffffffffffffffffffffffffffffffffff16815260200190815260200160002060008473ffffffffffffffffffffffffffffffffffffffff1673ffffffffffffffffffffffffffffffffffffffff16815260200190815260200160002060006101000a81548160ff0219169083151502179055508173ffffffffffffffffffffffffffffffffffffffff168373ffffffffffffffffffffffffffffffffffffffff167f17307eab39ab6107e8899845ad3d59bd9653f200f220920489ca2b5937696c31836040516118299190612586565b60405180910390a3505050565b600073ffffffffffffffffffffffffffffffffffffffff168473ffffffffffffffffffffffffffffffffffffffff16036118a85760006040517f57f447ce00000000000000000000000000000000000000000000000000000000815260040161189f9190612e3c565b60405180910390fd5b600073ffffffffffffffffffffffffffffffffffffffff168573ffffffffffffffffffffffffffffffffffffffff160361191a5760006040517f01a835140000000000000000000000000000000000000000000000000000000081526004016119119190612e3c565b60405180910390fd5b6000806119278585611a9a565b9150915061193887878484876119e8565b50505050505050565b600073ffffffffffffffffffffffffffffffffffffffff168373ffffffffffffffffffffffffffffffffffffffff16036119b35760006040517f01a835140000000000000000000000000000000000000000000000000000000081526004016119aa9190612e3c565b60405180910390fd5b6000806119c08484611a9a565b915091506119e18560008484604051806020016040528060008152506119e8565b5050505050565b6119f485858585611aca565b600073ffffffffffffffffffffffffffffffffffffffff168473ffffffffffffffffffffffffffffffffffffffff1614611a93576000611a326113ab565b90506001845103611a82576000611a536000866114bf90919063ffffffff16565b90506000611a6b6000866114bf90919063ffffffff16565b9050611a7b838989858589611adc565b5050611a91565b611a90818787878787611c90565b5b505b5050505050565b60608060405191506001825283602083015260408201905060018152826020820152604081016040529250929050565b611ad684848484611e44565b50505050565b60008473ffffffffffffffffffffffffffffffffffffffff163b1115611c88578373ffffffffffffffffffffffffffffffffffffffff1663f23a6e6187878686866040518663ffffffff1660e01b8152600401611b3d95949392919061350b565b6020604051808303816000875af1925050508015611b7957506040513d601f19601f82011682018060405250810190611b76919061357a565b60015b611bfd573d8060008114611ba9576040519150601f19603f3d011682016040523d82523d6000602084013e611bae565b606091505b506000815103611bf557846040517f57f447ce000000000000000000000000000000000000000000000000000000008152600401611bec9190612e3c565b60405180910390fd5b805181602001fd5b63f23a6e6160e01b7bffffffffffffffffffffffffffffffffffffffffffffffffffffffff1916817bffffffffffffffffffffffffffffffffffffffffffffffffffffffff191614611c8657846040517f57f447ce000000000000000000000000000000000000000000000000000000008152600401611c7d9190612e3c565b60405180910390fd5b505b505050505050565b60008473ffffffffffffffffffffffffffffffffffffffff163b1115611e3c578373ffffffffffffffffffffffffffffffffffffffff1663bc197c8187878686866040518663ffffffff1660e01b8152600401611cf19594939291906135a7565b6020604051808303816000875af1925050508015611d2d57506040513d601f19601f82011682018060405250810190611d2a919061357a565b60015b611db1573d8060008114611d5d576040519150601f19603f3d011682016040523d82523d6000602084013e611d62565b606091505b506000815103611da957846040517f57f447ce000000000000000000000000000000000000000000000000000000008152600401611da09190612e3c565b60405180910390fd5b805181602001fd5b63bc197c8160e01b7bffffffffffffffffffffffffffffffffffffffffffffffffffffffff1916817bffffffffffffffffffffffffffffffffffffffffffffffffffffffff191614611e3a57846040517f57f447ce000000000000000000000000000000000000000000000000000000008152600401611e319190612e3c565b60405180910390fd5b505b505050505050565b611e5084848484611fcf565b600073ffffffffffffffffffffffffffffffffffffffff168473ffffffffffffffffffffffffffffffffffffffff1603611f1a576000805b8351811015611efe576000611ea682856114bf90919063ffffffff16565b90508060036000611ec085896114bf90919063ffffffff16565b81526020019081526020016000206000828254611edd919061343a565b925050819055508083611ef0919061343a565b925050806001019050611e88565b508060046000828254611f11919061343a565b92505081905550505b600073ffffffffffffffffffffffffffffffffffffffff168373ffffffffffffffffffffffffffffffffffffffff1603611fc9576000805b8351811015611fb6576000611f7082856114bf90919063ffffffff16565b90508060036000611f8a85896114bf90919063ffffffff16565b815260200190815260200160002060008282540392505081905550808301925050806001019050611f52565b5080600460008282540392505081905550505b50505050565b805182511461201957815181516040517f5b0599910000000000000000000000000000000000000000000000000000000081526004016120109291906133e2565b60405180910390fd5b60006120236113ab565b905060005b835181101561223257600061204682866114bf90919063ffffffff16565b9050600061205d83866114bf90919063ffffffff16565b9050600073ffffffffffffffffffffffffffffffffffffffff168873ffffffffffffffffffffffffffffffffffffffff161461218a57600080600084815260200190815260200160002060008a73ffffffffffffffffffffffffffffffffffffffff1673ffffffffffffffffffffffffffffffffffffffff1681526020019081526020016000205490508181101561213257888183856040517f03dee4c5000000000000000000000000000000000000000000000000000000008152600401612129949392919061360f565b60405180910390fd5b81810360008085815260200190815260200160002060008b73ffffffffffffffffffffffffffffffffffffffff1673ffffffffffffffffffffffffffffffffffffffff16815260200190815260200160002081905550505b600073ffffffffffffffffffffffffffffffffffffffff168773ffffffffffffffffffffffffffffffffffffffff1614612225578060008084815260200190815260200160002060008973ffffffffffffffffffffffffffffffffffffffff1673ffffffffffffffffffffffffffffffffffffffff168152602001908152602001600020600082825461221d919061343a565b925050819055505b5050806001019050612028565b5060018351036122f15760006122526000856114bf90919063ffffffff16565b9050600061226a6000856114bf90919063ffffffff16565b90508573ffffffffffffffffffffffffffffffffffffffff168773ffffffffffffffffffffffffffffffffffffffff168473ffffffffffffffffffffffffffffffffffffffff167fc3d58168c5ae7397731d063d5bbf3d657854427343f4c083240f7aacaa2d0f6285856040516122e29291906133e2565b60405180910390a45050612370565b8373ffffffffffffffffffffffffffffffffffffffff168573ffffffffffffffffffffffffffffffffffffffff168273ffffffffffffffffffffffffffffffffffffffff167f4a39dc06d4c0dbc64b70af90fd698a233a518aa5d07e595d983b8c0526c8f7fb8686604051612367929190613654565b60405180910390a45b5050505050565b50805461238390613049565b6000825580601f1061239557506123b4565b601f0160209004906000526020600020908101906123b391906123b7565b5b50565b5b808211156123d05760008160009055506001016123b8565b5090565b6000604051905090565b600080fd5b600080fd5b600073ffffffffffffffffffffffffffffffffffffffff82169050919050565b6000612413826123e8565b9050919050565b61242381612408565b811461242e57600080fd5b50565b6000813590506124408161241a565b92915050565b6000819050919050565b61245981612446565b811461246457600080fd5b50565b60008135905061247681612450565b92915050565b60008060408385031215612493576124926123de565b5b60006124a185828601612431565b92505060206124b285828601612467565b9150509250929050565b6124c581612446565b82525050565b60006020820190506124e060008301846124bc565b92915050565b60007fffffffff0000000000000000000000000000000000000000000000000000000082169050919050565b61251b816124e6565b811461252657600080fd5b50565b60008135905061253881612512565b92915050565b600060208284031215612554576125536123de565b5b600061256284828501612529565b91505092915050565b60008115159050919050565b6125808161256b565b82525050565b600060208201905061259b6000830184612577565b92915050565b6000602082840312156125b7576125b66123de565b5b60006125c584828501612467565b91505092915050565b600081519050919050565b600082825260208201905092915050565b60005b838110156126085780820151818401526020810190506125ed565b60008484015250505050565b6000601f19601f8301169050919050565b6000612630826125ce565b61263a81856125d9565b935061264a8185602086016125ea565b61265381612614565b840191505092915050565b600060208201905081810360008301526126788184612625565b905092915050565b600080fd5b7f4e487b7100000000000000000000000000000000000000000000000000000000600052604160045260246000fd5b6126bd82612614565b810181811067ffffffffffffffff821117156126dc576126db612685565b5b80604052505050565b60006126ef6123d4565b90506126fb82826126b4565b919050565b600067ffffffffffffffff82111561271b5761271a612685565b5b602082029050602081019050919050565b600080fd5b600061274461273f84612700565b6126e5565b905080838252602082019050602084028301858111156127675761276661272c565b5b835b81811015612790578061277c8882612467565b845260208401935050602081019050612769565b5050509392505050565b600082601f8301126127af576127ae612680565b5b81356127bf848260208601612731565b91505092915050565b600080fd5b600067ffffffffffffffff8211156127e8576127e7612685565b5b6127f182612614565b9050602081019050919050565b82818337600083830152505050565b600061282061281b846127cd565b6126e5565b90508281526020810184848401111561283c5761283b6127c8565b5b6128478482856127fe565b509392505050565b600082601f83011261286457612863612680565b5b813561287484826020860161280d565b91505092915050565b60008060008060808587031215612897576128966123de565b5b60006128a587828801612431565b945050602085013567ffffffffffffffff8111156128c6576128c56123e3565b5b6128d28782880161279a565b935050604085013567ffffffffffffffff8111156128f3576128f26123e3565b5b6128ff8782880161279a565b925050606085013567ffffffffffffffff8111156129205761291f6123e3565b5b61292c8782880161284f565b91505092959194509250565b600080600080600060a08688031215612954576129536123de565b5b600061296288828901612431565b955050602061297388828901612431565b945050604086013567ffffffffffffffff811115612994576129936123e3565b5b6129a08882890161279a565b935050606086013567ffffffffffffffff8111156129c1576129c06123e3565b5b6129cd8882890161279a565b925050608086013567ffffffffffffffff8111156129ee576129ed6123e3565b5b6129fa8882890161284f565b9150509295509295909350565b600067ffffffffffffffff821115612a2257612a21612685565b5b612a2b82612614565b9050602081019050919050565b6000612a4b612a4684612a07565b6126e5565b905082815260208101848484011115612a6757612a666127c8565b5b612a728482856127fe565b509392505050565b600082601f830112612a8f57612a8e612680565b5b8135612a9f848260208601612a38565b91505092915050565b60008060408385031215612abf57612abe6123de565b5b6000612acd85828601612467565b925050602083013567ffffffffffffffff811115612aee57612aed6123e3565b5b612afa85828601612a7a565b9150509250929050565b600067ffffffffffffffff821115612b1f57612b1e612685565b5b602082029050602081019050919050565b6000612b43612b3e84612b04565b6126e5565b90508083825260208201905060208402830185811115612b6657612b6561272c565b5b835b81811015612b8f5780612b7b8882612431565b845260208401935050602081019050612b68565b5050509392505050565b600082601f830112612bae57612bad612680565b5b8135612bbe848260208601612b30565b91505092915050565b60008060408385031215612bde57612bdd6123de565b5b600083013567ffffffffffffffff811115612bfc57612bfb6123e3565b5b612c0885828601612b99565b925050602083013567ffffffffffffffff811115612c2957612c286123e3565b5b612c358582860161279a565b9150509250929050565b600081519050919050565b600082825260208201905092915050565b6000819050602082019050919050565b612c7481612446565b82525050565b6000612c868383612c6b565b60208301905092915050565b6000602082019050919050565b6000612caa82612c3f565b612cb48185612c4a565b9350612cbf83612c5b565b8060005b83811015612cf0578151612cd78882612c7a565b9750612ce283612c92565b925050600181019050612cc3565b5085935050505092915050565b60006020820190508181036000830152612d178184612c9f565b905092915050565b600080600060608486031215612d3857612d376123de565b5b6000612d4686828701612431565b935050602084013567ffffffffffffffff811115612d6757612d666123e3565b5b612d738682870161279a565b925050604084013567ffffffffffffffff811115612d9457612d936123e3565b5b612da08682870161279a565b9150509250925092565b60008060008060808587031215612dc457612dc36123de565b5b6000612dd287828801612431565b9450506020612de387828801612467565b9350506040612df487828801612467565b925050606085013567ffffffffffffffff811115612e1557612e146123e3565b5b612e218782880161284f565b91505092959194509250565b612e3681612408565b82525050565b6000602082019050612e516000830184612e2d565b92915050565b612e608161256b565b8114612e6b57600080fd5b50565b600081359050612e7d81612e57565b92915050565b60008060408385031215612e9a57612e996123de565b5b6000612ea885828601612431565b9250506020612eb985828601612e6e565b9150509250929050565b60008060408385031215612eda57612ed96123de565b5b6000612ee885828601612431565b9250506020612ef985828601612431565b9150509250929050565b600080600080600060a08688031215612f1f57612f1e6123de565b5b6000612f2d88828901612431565b9550506020612f3e88828901612431565b9450506040612f4f88828901612467565b9350506060612f6088828901612467565b925050608086013567ffffffffffffffff811115612f8157612f806123e3565b5b612f8d8882890161284f565b9150509295509295909350565b600060208284031215612fb057612faf6123de565b5b6000612fbe84828501612431565b91505092915050565b600080600060608486031215612fe057612fdf6123de565b5b6000612fee86828701612431565b9350506020612fff86828701612467565b925050604061301086828701612467565b9150509250925092565b7f4e487b7100000000000000000000000000000000000000000000000000000000600052602260045260246000fd5b6000600282049050600182168061306157607f821691505b6020821081036130745761307361301a565b5b50919050565b7f4e487b7100000000000000000000000000000000000000000000000000000000600052603260045260246000fd5b60006040820190506130be6000830185612e2d565b6130cb6020830184612e2d565b9392505050565b60008190508160005260206000209050919050565b60006020601f8301049050919050565b600082821b905092915050565b6000600883026131347fffffffffffffffffffffffffffffffffffffffffffffffffffffffffffffffff826130f7565b61313e86836130f7565b95508019841693508086168417925050509392505050565b6000819050919050565b600061317b61317661317184612446565b613156565b612446565b9050919050565b6000819050919050565b61319583613160565b6131a96131a182613182565b848454613104565b825550505050565b600090565b6131be6131b1565b6131c981848461318c565b505050565b5b818110156131ed576131e26000826131b6565b6001810190506131cf565b5050565b601f82111561323257613203816130d2565b61320c846130e7565b8101602085101561321b578190505b61322f613227856130e7565b8301826131ce565b50505b505050565b600082821c905092915050565b600061325560001984600802613237565b1980831691505092915050565b600061326e8383613244565b9150826002028217905092915050565b613287826125ce565b67ffffffffffffffff8111156132a05761329f612685565b5b6132aa8254613049565b6132b58282856131f1565b600060209050601f8311600181146132e857600084156132d6578287015190505b6132e08582613262565b865550613348565b601f1984166132f6866130d2565b60005b8281101561331e578489015182556001820191506020850194506020810190506132f9565b8683101561333b5784890151613337601f891682613244565b8355505b6001600288020188555050505b505050505050565b7f43616e6e6f742072656d6f766520696e6772656469656e74207769746820657860008201527f697374696e6720737570706c7900000000000000000000000000000000000000602082015250565b60006133ac602d836125d9565b91506133b782613350565b604082019050919050565b600060208201905081810360008301526133db8161339f565b9050919050565b60006040820190506133f760008301856124bc565b61340460208301846124bc565b9392505050565b7f4e487b7100000000000000000000000000000000000000000000000000000000600052601160045260246000fd5b600061344582612446565b915061345083612446565b92508282019050808211156134685761346761340b565b5b92915050565b600061347982612446565b91507fffffffffffffffffffffffffffffffffffffffffffffffffffffffffffffffff82036134ab576134aa61340b565b5b600182019050919050565b600081519050919050565b600082825260208201905092915050565b60006134dd826134b6565b6134e781856134c1565b93506134f78185602086016125ea565b61350081612614565b840191505092915050565b600060a0820190506135206000830188612e2d565b61352d6020830187612e2d565b61353a60408301866124bc565b61354760608301856124bc565b818103608083015261355981846134d2565b90509695505050505050565b60008151905061357481612512565b92915050565b6000602082840312156135905761358f6123de565b5b600061359e84828501613565565b91505092915050565b600060a0820190506135bc6000830188612e2d565b6135c96020830187612e2d565b81810360408301526135db8186612c9f565b905081810360608301526135ef8185612c9f565b9050818103608083015261360381846134d2565b90509695505050505050565b60006080820190506136246000830187612e2d565b61363160208301866124bc565b61363e60408301856124bc565b61364b60608301846124bc565b95945050505050565b6000604082019050818103600083015261366e8185612c9f565b905081810360208301526136828184612c9f565b9050939250505056fea26469706673582212209f7c9c94f2c98965a9bbca9465d8a618cd554eba32a4dd1c207012142613387264736f6c634300081c0033",
  "linkReferences": {},
  "deployedLinkReferences": {}
}